{
  "_format": "hh-sol-artifact-1",
  "contractName": "VanillaRouterDelegate",
  "sourceName": "contracts/TestUtils.sol",
  "abi": [
    {
      "inputs": [
        {
          "internalType": "address",
          "name": "uniswapRouter",
          "type": "address"
        }
      ],
      "stateMutability": "nonpayable",
      "type": "constructor"
    },
    {
      "anonymous": false,
      "inputs": [
        {
          "indexed": true,
          "internalType": "address",
          "name": "buyer",
          "type": "address"
        },
        {
          "indexed": true,
          "internalType": "address",
          "name": "token",
          "type": "address"
        },
        {
          "indexed": false,
          "internalType": "uint256",
          "name": "eth",
          "type": "uint256"
        },
        {
          "indexed": false,
          "internalType": "uint256",
          "name": "amount",
          "type": "uint256"
        },
        {
          "indexed": false,
          "internalType": "uint256",
          "name": "reserve",
          "type": "uint256"
        }
      ],
      "name": "TokensPurchased",
      "type": "event"
    },
    {
      "anonymous": false,
      "inputs": [
        {
          "indexed": true,
          "internalType": "address",
          "name": "seller",
          "type": "address"
        },
        {
          "indexed": true,
          "internalType": "address",
          "name": "token",
          "type": "address"
        },
        {
          "indexed": false,
          "internalType": "uint256",
          "name": "amount",
          "type": "uint256"
        },
        {
          "indexed": false,
          "internalType": "uint256",
          "name": "eth",
          "type": "uint256"
        },
        {
          "indexed": false,
          "internalType": "uint256",
          "name": "profit",
          "type": "uint256"
        },
        {
          "indexed": false,
          "internalType": "uint256",
          "name": "reward",
          "type": "uint256"
        },
        {
          "indexed": false,
          "internalType": "uint256",
          "name": "reserve",
          "type": "uint256"
        }
      ],
      "name": "TokensSold",
      "type": "event"
    },
    {
      "inputs": [
        {
          "internalType": "address",
          "name": "token",
          "type": "address"
        },
        {
          "internalType": "uint256",
          "name": "numEth",
          "type": "uint256"
        },
        {
          "internalType": "uint256",
          "name": "numToken",
          "type": "uint256"
        },
        {
          "internalType": "uint256",
          "name": "blockTimeDeadline",
          "type": "uint256"
        }
      ],
      "name": "buy",
      "outputs": [],
      "stateMutability": "nonpayable",
      "type": "function"
    },
    {
      "inputs": [
        {
          "internalType": "uint256",
          "name": "epoch_",
          "type": "uint256"
        },
        {
          "internalType": "uint256",
          "name": "avgBlock",
          "type": "uint256"
        },
        {
          "internalType": "uint256",
          "name": "currentBlock",
          "type": "uint256"
        },
        {
          "internalType": "uint256",
          "name": "profit",
          "type": "uint256"
        },
        {
          "internalType": "uint128",
          "name": "wethReserve",
          "type": "uint128"
        },
        {
          "internalType": "uint128",
          "name": "reserveLimit_",
          "type": "uint128"
        }
      ],
      "name": "calculateReward",
      "outputs": [
        {
          "internalType": "uint256",
          "name": "",
          "type": "uint256"
        }
      ],
      "stateMutability": "pure",
      "type": "function"
    },
    {
      "inputs": [
        {
          "internalType": "address",
          "name": "token",
          "type": "address"
        },
        {
          "internalType": "uint256",
          "name": "numToken",
          "type": "uint256"
        },
        {
          "internalType": "uint256",
          "name": "blockTimeDeadline",
          "type": "uint256"
        }
      ],
      "name": "depositAndBuy",
      "outputs": [],
      "stateMutability": "payable",
      "type": "function"
    },
    {
      "inputs": [],
      "name": "epoch",
      "outputs": [
        {
          "internalType": "uint256",
          "name": "",
          "type": "uint256"
        }
      ],
      "stateMutability": "view",
      "type": "function"
    },
    {
      "inputs": [
        {
          "internalType": "address",
          "name": "owner",
          "type": "address"
        },
        {
          "internalType": "address",
          "name": "token",
          "type": "address"
        },
        {
          "internalType": "uint256",
          "name": "numEth",
          "type": "uint256"
        },
        {
          "internalType": "uint256",
          "name": "numTokensSold",
          "type": "uint256"
        }
      ],
      "name": "estimateReward",
      "outputs": [
        {
          "internalType": "uint256",
          "name": "profitablePrice",
          "type": "uint256"
        },
        {
          "internalType": "uint256",
          "name": "avgBlock",
          "type": "uint256"
        },
        {
          "internalType": "uint256",
          "name": "htrs",
          "type": "uint256"
        },
        {
          "internalType": "uint256",
          "name": "vpc",
          "type": "uint256"
        },
        {
          "internalType": "uint256",
          "name": "reward",
          "type": "uint256"
        }
      ],
      "stateMutability": "view",
      "type": "function"
    },
    {
      "inputs": [],
      "name": "reserveLimit",
      "outputs": [
        {
          "internalType": "uint128",
          "name": "",
          "type": "uint128"
        }
      ],
      "stateMutability": "view",
      "type": "function"
    },
    {
      "inputs": [
        {
          "internalType": "address",
          "name": "token",
          "type": "address"
        },
        {
          "internalType": "uint256",
          "name": "numToken",
          "type": "uint256"
        },
        {
          "internalType": "uint256",
          "name": "numEthLimit",
          "type": "uint256"
        },
        {
          "internalType": "uint256",
          "name": "blockTimeDeadline",
          "type": "uint256"
        }
      ],
      "name": "sell",
      "outputs": [],
      "stateMutability": "nonpayable",
      "type": "function"
    },
    {
      "inputs": [
        {
          "internalType": "address",
          "name": "token",
          "type": "address"
        },
        {
          "internalType": "uint256",
          "name": "numToken",
          "type": "uint256"
        },
        {
          "internalType": "uint256",
          "name": "numEthLimit",
          "type": "uint256"
        },
        {
          "internalType": "uint256",
          "name": "blockTimeDeadline",
          "type": "uint256"
        }
      ],
      "name": "sellAndWithdraw",
      "outputs": [],
      "stateMutability": "nonpayable",
      "type": "function"
    },
    {
      "inputs": [
        {
          "internalType": "address",
          "name": "",
          "type": "address"
        },
        {
          "internalType": "address",
          "name": "",
          "type": "address"
        }
      ],
      "name": "tokenPriceData",
      "outputs": [
        {
          "internalType": "uint256",
          "name": "ethSum",
          "type": "uint256"
        },
        {
          "internalType": "uint256",
          "name": "tokenSum",
          "type": "uint256"
        },
        {
          "internalType": "uint256",
          "name": "weightedBlockSum",
          "type": "uint256"
        },
        {
          "internalType": "uint256",
          "name": "latestBlock",
          "type": "uint256"
        }
      ],
      "stateMutability": "view",
      "type": "function"
    },
    {
      "inputs": [],
      "name": "vnlContract",
      "outputs": [
        {
          "internalType": "contract VanillaGovernanceToken",
          "name": "",
          "type": "address"
        }
      ],
      "stateMutability": "view",
      "type": "function"
    },
    {
      "inputs": [
        {
          "internalType": "address",
          "name": "",
          "type": "address"
        }
      ],
      "name": "wethReserves",
      "outputs": [
        {
          "internalType": "uint128",
          "name": "",
          "type": "uint128"
        }
      ],
      "stateMutability": "view",
      "type": "function"
    },
    {
      "stateMutability": "payable",
      "type": "receive"
    }
  ],
  "bytecode": "0x6101206040523480156200001257600080fd5b506040516200322738038062003227833981810160405260208110156200003857600080fd5b5051604080516315ab88c960e31b815290518291600191839182916001600160a01b0383169163ad5c4648916004808301926020929190829003018186803b1580156200008457600080fd5b505afa15801562000099573d6000803e3d6000fd5b505050506040513d6020811015620000b057600080fd5b505160601b6001600160601b03191660a0526040805163c45a015560e01b815290516001600160a01b0383169163c45a0155916004808301926020929190829003018186803b1580156200010357600080fd5b505afa15801562000118573d6000803e3d6000fd5b505050506040513d60208110156200012f57600080fd5b505160601b6001600160601b031916608052505060405162000151906200024d565b604051809103906000f0801580156200016e573d6000803e3d6000fd5b5060601b6001600160601b03191660e0524360c052604080518082019091526002815261623560f01b60208201526001600160801b038216620002325760405162461bcd60e51b81526004018080602001828103825283818151815260200191508051906020019080838360005b83811015620001f6578181015183820152602001620001dc565b50505050905090810190601f168015620002245780820380516001836020036101000a031916815260200191505b509250505060405180910390fd5b5060801b6001600160801b03191661010052506200025b9050565b610d5880620024cf83390190565b60805160601c60a05160601c60c05160e05160601c6101005160801c6121d4620002fb600039806106a352806108605280610d98528061104f5280611098525080610a465280610deb52508061083b52806108a85280610d735280610fb35280610fe952508060b0528061050352806109bd52806111c4528061129d52806117c252806117f35280611bd45250806111a252806117a052506121d46000f3fe6080604052600436106100a05760003560e01c8063900cf0cf11610064578063900cf0cf1461026e57806392cdbac514610295578063ba322a92146102da578063cab892491461030c578063e6ea96f81461033d578063e85e1c4f14610370576100d9565b80631622dbe4146100de578063193b33a11461012357806321e7345e1461016857806338eea386146101995780637c30be4e146101fa576100d9565b366100d957336001600160a01b037f000000000000000000000000000000000000000000000000000000000000000016146100d757fe5b005b600080fd5b3480156100ea57600080fd5b506100d76004803603608081101561010157600080fd5b506001600160a01b0381351690602081013590604081013590606001356103c3565b34801561012f57600080fd5b506100d76004803603608081101561014657600080fd5b506001600160a01b038135169060208101359060408101359060600135610481565b34801561017457600080fd5b5061017d6106a1565b604080516001600160801b039092168252519081900360200190f35b3480156101a557600080fd5b506101d4600480360360408110156101bc57600080fd5b506001600160a01b03813581169160200135166106c5565b604080519485526020850193909352838301919091526060830152519081900360800190f35b34801561020657600080fd5b506102436004803603608081101561021d57600080fd5b506001600160a01b038135811691602081013590911690604081013590606001356106f5565b6040805195865260208601949094528484019290925260608401526080830152519081900360a00190f35b34801561027a57600080fd5b506102836108a6565b60408051918252519081900360200190f35b3480156102a157600080fd5b506100d7600480360360808110156102b857600080fd5b506001600160a01b0381351690602081013590604081013590606001356108ca565b6100d7600480360360608110156102f057600080fd5b506001600160a01b03813516906020810135906040013561094c565b34801561031857600080fd5b50610321610a44565b604080516001600160a01b039092168252519081900360200190f35b34801561034957600080fd5b5061017d6004803603602081101561036057600080fd5b50356001600160a01b0316610a68565b34801561037c57600080fd5b50610283600480360360c081101561039357600080fd5b508035906020810135906040810135906060810135906001600160801b03608082013581169160a0013516610a83565b804281101560405180604001604052806002815260200161623160f01b8152509061046c5760405162461bcd60e51b81526004018080602001828103825283818151815260200191508051906020019080838360005b83811015610431578181015183820152602001610419565b50505050905090810190601f16801561045e5780820380516001836020036101000a031916815260200191505b509250505060405180910390fd5b5061047a3333878787610aa0565b5050505050565b804281101560405180604001604052806002815260200161623160f01b815250906104ed5760405162461bcd60e51b8152602060048201818152835160248401528351909283926044909101919085019080838360008315610431578181015183820152602001610419565b5060006104fd3330888888610c07565b905060007f00000000000000000000000000000000000000000000000000000000000000009050806001600160a01b0316632e1a7d4d836040518263ffffffff1660e01b815260040180828152602001915050600060405180830381600087803b15801561056a57600080fd5b505af115801561057e573d6000803e3d6000fd5b505060408051600080825260208201928390528151909450339350869290819081908082805b602083106105c35780518252601f1990920191602091820191016105a4565b6001836020036101000a03801982511681845116808217855250505050505090500191505060006040518083038185875af1925050503d8060008114610625576040519150601f19603f3d011682016040523d82523d6000602084013e61062a565b606091505b505090508060405180604001604052806002815260200161311960f11b815250906106965760405162461bcd60e51b8152602060048201818152835160248401528351909283926044909101919085019080838360008315610431578181015183820152602001610419565b505050505050505050565b7f000000000000000000000000000000000000000000000000000000000000000081565b60016020818152600093845260408085209091529183529120805491810154600282015460039092015490919084565b6001600160a01b03808516600090815260016020818152604080842094881684529381528383209182015484518086019095526002855261188d60f21b918501919091529192839283928392839261078e5760405162461bcd60e51b8152602060048201818152835160248401528351909283926044909101919085019080838360008315610431578181015183820152602001610419565b50600181015481546107b891906107ac908a9063ffffffff610ec016565b9063ffffffff610f2216565b95506107d581600101548260020154610f2290919063ffffffff16565b94508588111561088d5760006107f1898863ffffffff610f6416565b6001600160a01b038b166000908152602081905260409020549091506001600160801b031661081f87610fa6565b955061083482826001600160801b031661104a565b94506108847f0000000000000000000000000000000000000000000000000000000000000000884385857f00000000000000000000000000000000000000000000000000000000000000006110cb565b9350505061089a565b6000935060009250600091505b50945094509450945094565b7f000000000000000000000000000000000000000000000000000000000000000081565b804281101560405180604001604052806002815260200161623160f01b815250906109365760405162461bcd60e51b8152602060048201818152835160248401528351909283926044909101919085019080838360008315610431578181015183820152602001610419565b506109443333878787610c07565b505050505050565b804281101560405180604001604052806002815260200161623160f01b815250906109b85760405162461bcd60e51b8152602060048201818152835160248401528351909283926044909101919085019080838360008315610431578181015183820152602001610419565b5060007f000000000000000000000000000000000000000000000000000000000000000090506000349050816001600160a01b031663d0e30db0826040518263ffffffff1660e01b81526004016000604051808303818588803b158015610a1e57600080fd5b505af1158015610a32573d6000803e3d6000fd5b50505050506109443330888489610aa0565b7f000000000000000000000000000000000000000000000000000000000000000081565b6000602081905290815260409020546001600160801b031681565b6000610a938787878787876110cb565b90505b9695505050505050565b6001600160a01b038086166000908152600160209081526040808320938716835292815290829020600381015483518085019094526002845261623360f01b9284019290925291904311610b355760405162461bcd60e51b8152602060048201818152835160248401528351909283926044909101919085019080838360008315610431578181015183820152602001610419565b50436003820155600080610b4b8686868a611197565b84549193506001600160801b03169150610b6b908663ffffffff61173b16565b83556001830154610b82908363ffffffff61173b16565b6001840155610bab610b9a438463ffffffff610ec016565b60028501549063ffffffff61173b16565b6002840155604080518681526020810184905280820183905290516001600160a01b0388169133917f377aadedb6b2a771959584d10a6a36eccb5f56b4eb3a48525f76108d2660d8d49181900360600190a35050505050505050565b6001600160a01b0380861660009081526001602090815260408083209387168352928152828220600381015484518086019095526002855261623360f01b928501929092529192904311610c9c5760405162461bcd60e51b8152602060048201818152835160248401528351909283926044909101919085019080838360008315610431578181015183820152602001610419565b50436003820155600080610cb28787878b611795565b915091506000610cd784600101546107ac86600001548a610ec090919063ffffffff16565b90506000610cf685600101548660020154610f2290919063ffffffff16565b90506000610d11898760010154610f6490919063ffffffff16565b90506000838611610d23576000610d33565b610d33868563ffffffff610f6416565b9050610d488760000154838960010154611cef565b875560028701546001880154610d6091908490611cef565b6002880155600187018290556000610dbc7f00000000000000000000000000000000000000000000000000000000000000008543858a7f00000000000000000000000000000000000000000000000000000000000000006110cb565b90508015610e4b57604080516340c10f1960e01b81523360048201526024810183905290516001600160a01b037f000000000000000000000000000000000000000000000000000000000000000016916340c10f1991604480830192600092919082900301818387803b158015610e3257600080fd5b505af1158015610e46573d6000803e3d6000fd5b505050505b604080518c815260208101899052808201849052606081018390526001600160801b038816608082015290516001600160a01b038e169133917f7bb7d75a26cf0ec5e66d271f759924252ed21586b985a2dbfa2e8bdaf249df499181900360a00190a350949c9b505050505050505050505050565b600082610ecf57506000610f1c565b82820282848281610edc57fe5b0414610f195760405162461bcd60e51b815260040180806020018281038252602181526020018061217e6021913960400191505060405180910390fd5b90505b92915050565b6000610f1983836040518060400160405280601a81526020017f536166654d6174683a206469766973696f6e206279207a65726f000000000000815250611d0d565b6000610f1983836040518060400160405280601e81526020017f536166654d6174683a207375627472616374696f6e206f766572666c6f770000815250611d72565b600043821480610fd557507f000000000000000000000000000000000000000000000000000000000000000043145b15610fe257506000611045565b43828103907f0000000000000000000000000000000000000000000000000000000000000000900361104061101d828063ffffffff610ec016565b6107ac620f4240611034868063ffffffff610ec016565b9063ffffffff610ec016565b925050505b919050565b6000817f00000000000000000000000000000000000000000000000000000000000000006001600160801b03168401111561108757506000610f1c565b610f19826107ac6001600160801b037f00000000000000000000000000000000000000000000000000000000000000001686830303620f424063ffffffff610ec016565b6000836110da57506000610a96565b826001600160801b0316826001600160801b0316850111156110fe57506000610a96565b8585141561110e57506000610a96565b8685141561111e57506000610a96565b6001600160801b0380831690841685900303868603888703600061115b61114b848063ffffffff610ec016565b6110348a8763ffffffff610ec016565b905061116d828063ffffffff610ec016565b876001600160801b0316828161117f57fe5b048161118757fe5b049b9a5050505050505050505050565b6000806000806111e87f0000000000000000000000000000000000000000000000000000000000000000897f0000000000000000000000000000000000000000000000000000000000000000611dcc565b604080516370a0823160e01b815230600482018190529151939550919350849290916000916001600160a01b038d16916370a08231916024808301926020929190829003018186803b15801561123d57600080fd5b505afa158015611251573d6000803e3d6000fd5b505050506040513d602081101561126757600080fd5b5051604080516323b872dd60e01b81526001600160a01b038b811660048301528881166024830152604482018e905291519293507f0000000000000000000000000000000000000000000000000000000000000000909116916323b872dd916064808201926020929091908290030181600087803b1580156112e857600080fd5b505af11580156112fc573d6000803e3d6000fd5b505050506040513d602081101561131257600080fd5b505083156114a757600080846001600160a01b0316630902f1ac6040518163ffffffff1660e01b815260040160606040518083038186803b15801561135657600080fd5b505afa15801561136a573d6000803e3d6000fd5b505050506040513d606081101561138057600080fd5b50805160209091015190925090506001600160a01b03851663022c0d9f6113b48e6001600160701b03808616908716611ee9565b60408051600080825260208201928390526001600160e01b031960e086901b16835260248201848152604483018290526001600160a01b038b166064840152608060848401908152835160a4850181905292948c949360c4850191908083838a5b8381101561142d578181015183820152602001611415565b50505050905090810190601f16801561145a5780820380516001836020036101000a031916815260200191505b5095505050505050600060405180830381600087803b15801561147c57600080fd5b505af1158015611490573d6000803e3d6000fd5b5050505061149e8d82611f3e565b9750505061163c565b600080846001600160a01b0316630902f1ac6040518163ffffffff1660e01b815260040160606040518083038186803b1580156114e357600080fd5b505afa1580156114f7573d6000803e3d6000fd5b505050506040513d606081101561150d57600080fd5b50805160209091015190925090506001600160a01b03851663022c0d9f60006115438f6001600160701b03808816908716611ee9565b604080516000808252602082019092528991506040518563ffffffff1660e01b815260040180858152602001848152602001836001600160a01b03166001600160a01b0316815260200180602001828103825283818151815260200191508051906020019080838360005b838110156115c65781810151838201526020016115ae565b50505050905090810190601f1680156115f35780820380516001836020036101000a031916815260200191505b5095505050505050600060405180830381600087803b15801561161557600080fd5b505af1158015611629573d6000803e3d6000fd5b505050506116378d83611f3e565b975050505b808b6001600160a01b03166370a08231846040518263ffffffff1660e01b815260040180826001600160a01b03166001600160a01b0316815260200191505060206040518083038186803b15801561169357600080fd5b505afa1580156116a7573d6000803e3d6000fd5b505050506040513d60208110156116bd57600080fd5b5051604080518082019091526002815261613160f01b602082015291900397508988101561172c5760405162461bcd60e51b8152602060048201818152835160248401528351909283926044909101919085019080838360008315610431578181015183820152602001610419565b50505050505094509492505050565b600082820183811015610f19576040805162461bcd60e51b815260206004820152601b60248201527f536166654d6174683a206164646974696f6e206f766572666c6f770000000000604482015290519081900360640190fd5b6000806000806117e67f0000000000000000000000000000000000000000000000000000000000000000897f0000000000000000000000000000000000000000000000000000000000000000611dcc565b91509150600082905060007f00000000000000000000000000000000000000000000000000000000000000006001600160a01b03166370a08231886040518263ffffffff1660e01b815260040180826001600160a01b03166001600160a01b0316815260200191505060206040518083038186803b15801561186757600080fd5b505afa15801561187b573d6000803e3d6000fd5b505050506040513d602081101561189157600080fd5b505190506118a08a858b611fac565b8215611a3f57600080836001600160a01b0316630902f1ac6040518163ffffffff1660e01b815260040160606040518083038186803b1580156118e257600080fd5b505afa1580156118f6573d6000803e3d6000fd5b505050506040513d606081101561190c57600080fd5b50805160209091015190925090506001600160a01b03841663022c0d9f60006119428e6001600160701b03808816908716611ee9565b604080516000808252602082019092528e91506040518563ffffffff1660e01b815260040180858152602001848152602001836001600160a01b03166001600160a01b0316815260200180602001828103825283818151815260200191508051906020019080838360005b838110156119c55781810151838201526020016119ad565b50505050905090810190601f1680156119f25780820380516001836020036101000a031916815260200191505b5095505050505050600060405180830381600087803b158015611a1457600080fd5b505af1158015611a28573d6000803e3d6000fd5b50505050611a368c8261210f565b96505050611bd1565b600080836001600160a01b0316630902f1ac6040518163ffffffff1660e01b815260040160606040518083038186803b158015611a7b57600080fd5b505afa158015611a8f573d6000803e3d6000fd5b505050506040513d6060811015611aa557600080fd5b50805160209091015190925090506001600160a01b03841663022c0d9f611ad98d6001600160701b03808616908716611ee9565b604080516000808252602082019092528d906040518563ffffffff1660e01b815260040180858152602001848152602001836001600160a01b03166001600160a01b0316815260200180602001828103825283818151815260200191508051906020019080838360005b83811015611b5b578181015183820152602001611b43565b50505050905090810190601f168015611b885780820380516001836020036101000a031916815260200191505b5095505050505050600060405180830381600087803b158015611baa57600080fd5b505af1158015611bbe573d6000803e3d6000fd5b50505050611bcc8c8361210f565b965050505b807f00000000000000000000000000000000000000000000000000000000000000006001600160a01b03166370a08231896040518263ffffffff1660e01b815260040180826001600160a01b03166001600160a01b0316815260200191505060206040518083038186803b158015611c4857600080fd5b505afa158015611c5c573d6000803e3d6000fd5b505050506040513d6020811015611c7257600080fd5b5051604080518082019091526002815261613160f01b6020820152919003965088871015611ce15760405162461bcd60e51b8152602060048201818152835160248401528351909283926044909101919085019080838360008315610431578181015183820152602001610419565b505050505094509492505050565b6000611d05826107ac868663ffffffff610ec016565b949350505050565b60008183611d5c5760405162461bcd60e51b8152602060048201818152835160248401528351909283926044909101919085019080838360008315610431578181015183820152602001610419565b506000838581611d6857fe5b0495945050505050565b60008184841115611dc45760405162461bcd60e51b8152602060048201818152835160248401528351909283926044909101919085019080838360008315610431578181015183820152602001610419565b505050900390565b60006001600160a01b03808316908416108481611e2157604080516bffffffffffffffffffffffff19606087811b8216602084015288901b166034820152815160288183030181526048909101909152611e5b565b604080516bffffffffffffffffffffffff19606088811b8216602084015287901b1660348201528151602881830301815260489091019091525b8051906020012060405160200180806001600160f81b0319815250600101836001600160a01b03166001600160a01b031660601b8152601401828152602001807f96e8ac4277198ff8b6f785478aa9a39f403cb768dd02cbee326c3e7da348845f815250602001925050506040516020818303038152906040528051906020012060001c9150935093915050565b600080611efe856103e563ffffffff610ec016565b9050611f35611f2582611f19876103e863ffffffff610ec016565b9063ffffffff61173b16565b6107ac858463ffffffff610ec016565b95945050505050565b6001600160a01b0382166000908152602081905260409020546001600160801b03166001600160701b038216811015610f1c57506001600160a01b038216600090815260208190526040902080546001600160801b0319166001600160701b03831690811790915592915050565b604080516001600160a01b038481166024830152604480830185905283518084039091018152606490920183526020820180516001600160e01b031663a9059cbb60e01b178152925182516000946060949389169392918291908083835b602083106120295780518252601f19909201916020918201910161200a565b6001836020036101000a0380198251168184511680821785525050505050509050019150506000604051808303816000865af19150503d806000811461208b576040519150601f19603f3d011682016040523d82523d6000602084013e612090565b606091505b50915091508180156120be5750805115806120be57508080602001905160208110156120bb57600080fd5b50515b61047a576040805162461bcd60e51b815260206004820152601f60248201527f5472616e7366657248656c7065723a205452414e534645525f4641494c454400604482015290519081900360640190fd5b6001600160a01b0382166000908152602081905260409020546001600160801b03166001600160701b038216811115610f1c57506001600160a01b038216600090815260208190526040902080546001600160801b0319166001600160701b0383169081179091559291505056fe536166654d6174683a206d756c7469706c69636174696f6e206f766572666c6f77a264697066735822122011daa42d1ceb06497bdf32c4c2c0226ac740eb7c95a8252c543eede5b8d3c7b364736f6c6343000608003360a060405234801561001057600080fd5b506040518060400160405280600781526020016656616e696c6c6160c81b8152506040518060400160405280600381526020016215939360ea1b81525081600390805190602001906100639291906100bc565b5080516100779060049060208401906100bc565b50506005805460ff19166012179055503360601b6080526100a1600c6001600160e01b036100a616565b610157565b6005805460ff191660ff92909216919091179055565b828054600181600116156101000203166002900490600052602060002090601f016020900481019282601f106100fd57805160ff191683800117855561012a565b8280016001018555821561012a579182015b8281111561012a57825182559160200191906001019061010f565b5061013692915061013a565b5090565b61015491905b808211156101365760008155600101610140565b90565b60805160601c610be4610174600039806104b05250610be46000f3fe608060405234801561001057600080fd5b50600436106100b45760003560e01c806340c10f191161007157806340c10f191461021057806370a082311461023e57806395d89b4114610264578063a457c2d71461026c578063a9059cbb14610298578063dd62ed3e146102c4576100b4565b806306fdde03146100b9578063095ea7b31461013657806318160ddd1461017657806323b872dd14610190578063313ce567146101c657806339509351146101e4575b600080fd5b6100c16102f2565b6040805160208082528351818301528351919283929083019185019080838360005b838110156100fb5781810151838201526020016100e3565b50505050905090810190601f1680156101285780820380516001836020036101000a031916815260200191505b509250505060405180910390f35b6101626004803603604081101561014c57600080fd5b506001600160a01b038135169060200135610388565b604080519115158252519081900360200190f35b61017e6103a5565b60408051918252519081900360200190f35b610162600480360360608110156101a657600080fd5b506001600160a01b038135811691602081013590911690604001356103ab565b6101ce610438565b6040805160ff9092168252519081900360200190f35b610162600480360360408110156101fa57600080fd5b506001600160a01b038135169060200135610441565b61023c6004803603604081101561022657600080fd5b506001600160a01b038135169060200135610495565b005b61017e6004803603602081101561025457600080fd5b50356001600160a01b0316610571565b6100c161058c565b6101626004803603604081101561028257600080fd5b506001600160a01b0381351690602001356105ed565b610162600480360360408110156102ae57600080fd5b506001600160a01b03813516906020013561065b565b61017e600480360360408110156102da57600080fd5b506001600160a01b038135811691602001351661066f565b60038054604080516020601f600260001961010060018816150201909516949094049384018190048102820181019092528281526060939092909183018282801561037e5780601f106103535761010080835404028352916020019161037e565b820191906000526020600020905b81548152906001019060200180831161036157829003601f168201915b5050505050905090565b600061039c61039561069a565b848461069e565b50600192915050565b60025490565b60006103b884848461078a565b61042e846103c461069a565b61042985604051806060016040528060288152602001610b19602891396001600160a01b038a1660009081526001602052604081209061040261069a565b6001600160a01b03168152602081019190915260400160002054919063ffffffff6108f116565b61069e565b5060019392505050565b60055460ff1690565b600061039c61044e61069a565b84610429856001600061045f61069a565b6001600160a01b03908116825260208083019390935260409182016000908120918c16815292529020549063ffffffff61094b16565b604080518082019091526002815261633160f01b60208201527f00000000000000000000000000000000000000000000000000000000000000006001600160a01b031633146105625760405162461bcd60e51b81526004018080602001828103825283818151815260200191508051906020019080838360005b8381101561052757818101518382015260200161050f565b50505050905090810190601f1680156105545780820380516001836020036101000a031916815260200191505b509250505060405180910390fd5b5061056d82826109ac565b5050565b6001600160a01b031660009081526020819052604090205490565b60048054604080516020601f600260001961010060018816150201909516949094049384018190048102820181019092528281526060939092909183018282801561037e5780601f106103535761010080835404028352916020019161037e565b600061039c6105fa61069a565b8461042985604051806060016040528060258152602001610b8a602591396001600061062461069a565b6001600160a01b03908116825260208083019390935260409182016000908120918d1681529252902054919063ffffffff6108f116565b600061039c61066861069a565b848461078a565b6001600160a01b03918216600090815260016020908152604080832093909416825291909152205490565b3390565b6001600160a01b0383166106e35760405162461bcd60e51b8152600401808060200182810382526024815260200180610b666024913960400191505060405180910390fd5b6001600160a01b0382166107285760405162461bcd60e51b8152600401808060200182810382526022815260200180610ad16022913960400191505060405180910390fd5b6001600160a01b03808416600081815260016020908152604080832094871680845294825291829020859055815185815291517f8c5be1e5ebec7d5bd14f71427d1e84f3dd0314c0f7b2291e5b200ac8c7c3b9259281900390910190a3505050565b6001600160a01b0383166107cf5760405162461bcd60e51b8152600401808060200182810382526025815260200180610b416025913960400191505060405180910390fd5b6001600160a01b0382166108145760405162461bcd60e51b8152600401808060200182810382526023815260200180610aae6023913960400191505060405180910390fd5b61081f838383610aa8565b61086281604051806060016040528060268152602001610af3602691396001600160a01b038616600090815260208190526040902054919063ffffffff6108f116565b6001600160a01b038085166000908152602081905260408082209390935590841681522054610897908263ffffffff61094b16565b6001600160a01b038084166000818152602081815260409182902094909455805185815290519193928716927fddf252ad1be2c89b69c2b068fc378daa952ba7f163c4a11628f55a4df523b3ef92918290030190a3505050565b600081848411156109435760405162461bcd60e51b815260206004820181815283516024840152835190928392604490910191908501908083836000831561052757818101518382015260200161050f565b505050900390565b6000828201838110156109a5576040805162461bcd60e51b815260206004820152601b60248201527f536166654d6174683a206164646974696f6e206f766572666c6f770000000000604482015290519081900360640190fd5b9392505050565b6001600160a01b038216610a07576040805162461bcd60e51b815260206004820152601f60248201527f45524332303a206d696e7420746f20746865207a65726f206164647265737300604482015290519081900360640190fd5b610a1360008383610aa8565b600254610a26908263ffffffff61094b16565b6002556001600160a01b038216600090815260208190526040902054610a52908263ffffffff61094b16565b6001600160a01b0383166000818152602081815260408083209490945583518581529351929391927fddf252ad1be2c89b69c2b068fc378daa952ba7f163c4a11628f55a4df523b3ef9281900390910190a35050565b50505056fe45524332303a207472616e7366657220746f20746865207a65726f206164647265737345524332303a20617070726f766520746f20746865207a65726f206164647265737345524332303a207472616e7366657220616d6f756e7420657863656564732062616c616e636545524332303a207472616e7366657220616d6f756e74206578636565647320616c6c6f77616e636545524332303a207472616e736665722066726f6d20746865207a65726f206164647265737345524332303a20617070726f76652066726f6d20746865207a65726f206164647265737345524332303a2064656372656173656420616c6c6f77616e63652062656c6f77207a65726fa2646970667358221220449cc3c61bf3719e379786831c30ca1c3560bda34a7e80b90912165a4eb226cb64736f6c63430006080033",
  "linkReferences": {},
  "deployedLinkReferences": {}
}