{
  "_format": "hh-sol-artifact-1",
  "contractName": "UniswapV3TestHelper",
  "sourceName": "contracts/UniswapV3TestHelper.sol",
  "abi": [
    {
      "inputs": [
        {
          "internalType": "address",
          "name": "pool",
          "type": "address"
        },
        {
          "internalType": "address",
          "name": "recipient",
          "type": "address"
        },
        {
          "internalType": "int24",
          "name": "low",
          "type": "int24"
        },
        {
          "internalType": "int24",
          "name": "high",
          "type": "int24"
        },
        {
          "internalType": "uint128",
          "name": "liquidity",
          "type": "uint128"
        }
      ],
      "name": "mint",
      "outputs": [],
      "stateMutability": "nonpayable",
      "type": "function"
    },
    {
      "inputs": [
        {
          "internalType": "uint256",
          "name": "amount0Owed",
          "type": "uint256"
        },
        {
          "internalType": "uint256",
          "name": "amount1Owed",
          "type": "uint256"
        },
        {
          "internalType": "bytes",
          "name": "data",
          "type": "bytes"
        }
      ],
      "name": "uniswapV3MintCallback",
      "outputs": [],
      "stateMutability": "nonpayable",
      "type": "function"
    }
  ],
  "bytecode": "0x608060405234801561001057600080fd5b5061077a806100206000396000f3fe608060405234801561001057600080fd5b50600436106100365760003560e01c80637b4f53271461003b578063d348799714610050575b600080fd5b61004e610049366004610507565b610063565b005b61004e61005e3660046105c1565b610127565b846001600160a01b0316633c8a7d8d858585858a3360405160200161009e9291906001600160a01b0392831681529116602082015260400190565b6040516020818303038152906040526040518663ffffffff1660e01b81526004016100cd959493929190610687565b6040805180830381600087803b1580156100e657600080fd5b505af11580156100fa573d6000803e3d6000fd5b505050506040513d601f19601f8201168201806040525081019061011e919061059e565b50505050505050565b6101526040518060400160405280600881526020016763616c6c6261636b60c01b81525085856103e5565b600080610161838501856104cf565b915091506101906040518060400160405280600881526020016763616c6c6261636b60c01b8152508383610431565b6001600160a01b03821633146101d55760405162461bcd60e51b81526020600482015260066024820152653932b0b9b7b760d11b604482015260640160405180910390fd5b85156102da57816001600160a01b0316630dfe16816040518163ffffffff1660e01b815260040160206040518083038186803b15801561021457600080fd5b505afa158015610228573d6000803e3d6000fd5b505050506040513d601f19601f8201168201806040525081019061024c91906104ac565b6040516323b872dd60e01b81526001600160a01b03838116600483015284811660248301526044820189905291909116906323b872dd90606401602060405180830381600087803b1580156102a057600080fd5b505af11580156102b4573d6000803e3d6000fd5b505050506040513d601f19601f820116820180604052508101906102d8919061057e565b505b84156103dd57816001600160a01b031663d21220a76040518163ffffffff1660e01b815260040160206040518083038186803b15801561031957600080fd5b505afa15801561032d573d6000803e3d6000fd5b505050506040513d601f19601f8201168201806040525081019061035191906104ac565b6040516323b872dd60e01b81526001600160a01b03838116600483015284811660248301526044820188905291909116906323b872dd90606401602060405180830381600087803b1580156103a557600080fd5b505af11580156103b9573d6000803e3d6000fd5b505050506040513d601f19601f8201168201806040525081019061011e919061057e565b505050505050565b61042c8383836040516024016103fd93929190610707565b60408051601f198184030181529190526020810180516001600160e01b031663969cdd0360e01b179052610474565b505050565b61042c838383604051602401610449939291906106d4565b60408051601f198184030181529190526020810180516001600160e01b03166307e763af60e51b1790525b80516a636f6e736f6c652e6c6f67602083016000808483855afa5050505050565b8035600281900b81146104a757600080fd5b919050565b6000602082840312156104bd578081fd5b81516104c88161072c565b9392505050565b600080604083850312156104e1578081fd5b82356104ec8161072c565b915060208301356104fc8161072c565b809150509250929050565b600080600080600060a0868803121561051e578081fd5b85356105298161072c565b945060208601356105398161072c565b935061054760408701610495565b925061055560608701610495565b915060808601356001600160801b0381168114610570578182fd5b809150509295509295909350565b60006020828403121561058f578081fd5b815180151581146104c8578182fd5b600080604083850312156105b0578182fd5b505080516020909101519092909150565b600080600080606085870312156105d6578384fd5b8435935060208501359250604085013567ffffffffffffffff808211156105fb578384fd5b818701915087601f83011261060e578384fd5b81358181111561061c578485fd5b88602082850101111561062d578485fd5b95989497505060200194505050565b60008151808452815b8181101561066157602081850181015186830182015201610645565b818111156106725782602083870101525b50601f01601f19169290920160200192915050565b60018060a01b03861681528460020b60208201528360020b60408201526001600160801b038316606082015260a0608082015260006106c960a083018461063c565b979650505050505050565b6060815260006106e7606083018661063c565b6001600160a01b0394851660208401529290931660409091015292915050565b60608152600061071a606083018661063c565b60208301949094525060400152919050565b6001600160a01b038116811461074157600080fd5b5056fea264697066735822122005943216c7e03a524833cab3c7415d7835fbbfd49b4486307e5b45f7b4dc3f2664736f6c63430008040033",
  "linkReferences": {},
  "deployedLinkReferences": {}
}