{
  "_format": "hh-sol-artifact-1",
  "contractName": "VanillaRouterDelegate",
  "sourceName": "contracts/TestUtils.sol",
  "abi": [
    {
      "inputs": [
        {
          "internalType": "address",
          "name": "uniswapRouter",
          "type": "address"
        },
        {
          "internalType": "address[]",
          "name": "allowedTokens",
          "type": "address[]"
        }
      ],
      "stateMutability": "nonpayable",
      "type": "constructor"
    },
    {
      "anonymous": false,
      "inputs": [
        {
          "indexed": true,
          "internalType": "address",
          "name": "buyer",
          "type": "address"
        },
        {
          "indexed": true,
          "internalType": "address",
          "name": "token",
          "type": "address"
        },
        {
          "indexed": false,
          "internalType": "uint256",
          "name": "eth",
          "type": "uint256"
        },
        {
          "indexed": false,
          "internalType": "uint256",
          "name": "amount",
          "type": "uint256"
        },
        {
          "indexed": false,
          "internalType": "uint256",
          "name": "reserve",
          "type": "uint256"
        }
      ],
      "name": "TokensPurchased",
      "type": "event"
    },
    {
      "anonymous": false,
      "inputs": [
        {
          "indexed": true,
          "internalType": "address",
          "name": "seller",
          "type": "address"
        },
        {
          "indexed": true,
          "internalType": "address",
          "name": "token",
          "type": "address"
        },
        {
          "indexed": false,
          "internalType": "uint256",
          "name": "amount",
          "type": "uint256"
        },
        {
          "indexed": false,
          "internalType": "uint256",
          "name": "eth",
          "type": "uint256"
        },
        {
          "indexed": false,
          "internalType": "uint256",
          "name": "profit",
          "type": "uint256"
        },
        {
          "indexed": false,
          "internalType": "uint256",
          "name": "reward",
          "type": "uint256"
        },
        {
          "indexed": false,
          "internalType": "uint256",
          "name": "reserve",
          "type": "uint256"
        }
      ],
      "name": "TokensSold",
      "type": "event"
    },
    {
      "inputs": [
        {
          "internalType": "address",
          "name": "token",
          "type": "address"
        },
        {
          "internalType": "uint256",
          "name": "numEth",
          "type": "uint256"
        },
        {
          "internalType": "uint256",
          "name": "numToken",
          "type": "uint256"
        },
        {
          "internalType": "uint256",
          "name": "blockTimeDeadline",
          "type": "uint256"
        }
      ],
      "name": "buy",
      "outputs": [],
      "stateMutability": "nonpayable",
      "type": "function"
    },
    {
      "inputs": [
        {
          "internalType": "uint256",
          "name": "epoch_",
          "type": "uint256"
        },
        {
          "internalType": "uint256",
          "name": "avgBlock",
          "type": "uint256"
        },
        {
          "internalType": "uint256",
          "name": "currentBlock",
          "type": "uint256"
        },
        {
          "internalType": "uint256",
          "name": "profit",
          "type": "uint256"
        },
        {
          "internalType": "uint128",
          "name": "wethReserve",
          "type": "uint128"
        },
        {
          "internalType": "uint128",
          "name": "reserveLimit_",
          "type": "uint128"
        }
      ],
      "name": "calculateReward",
      "outputs": [
        {
          "internalType": "uint256",
          "name": "",
          "type": "uint256"
        }
      ],
      "stateMutability": "pure",
      "type": "function"
    },
    {
      "inputs": [
        {
          "internalType": "address",
          "name": "token",
          "type": "address"
        },
        {
          "internalType": "uint256",
          "name": "numToken",
          "type": "uint256"
        },
        {
          "internalType": "uint256",
          "name": "blockTimeDeadline",
          "type": "uint256"
        }
      ],
      "name": "depositAndBuy",
      "outputs": [],
      "stateMutability": "payable",
      "type": "function"
    },
    {
      "inputs": [],
      "name": "epoch",
      "outputs": [
        {
          "internalType": "uint256",
          "name": "",
          "type": "uint256"
        }
      ],
      "stateMutability": "view",
      "type": "function"
    },
    {
      "inputs": [
        {
          "internalType": "address",
          "name": "owner",
          "type": "address"
        },
        {
          "internalType": "address",
          "name": "token",
          "type": "address"
        },
        {
          "internalType": "uint256",
          "name": "numEth",
          "type": "uint256"
        },
        {
          "internalType": "uint256",
          "name": "numTokensSold",
          "type": "uint256"
        }
      ],
      "name": "estimateReward",
      "outputs": [
        {
          "internalType": "uint256",
          "name": "profitablePrice",
          "type": "uint256"
        },
        {
          "internalType": "uint256",
          "name": "avgBlock",
          "type": "uint256"
        },
        {
          "internalType": "uint256",
          "name": "htrs",
          "type": "uint256"
        },
        {
          "internalType": "uint256",
          "name": "vpc",
          "type": "uint256"
        },
        {
          "internalType": "uint256",
          "name": "reward",
          "type": "uint256"
        }
      ],
      "stateMutability": "view",
      "type": "function"
    },
    {
      "inputs": [
        {
          "internalType": "address",
          "name": "token",
          "type": "address"
        }
      ],
      "name": "isTokenRewarded",
      "outputs": [
        {
          "internalType": "bool",
          "name": "",
          "type": "bool"
        }
      ],
      "stateMutability": "view",
      "type": "function"
    },
    {
      "inputs": [],
      "name": "reserveLimit",
      "outputs": [
        {
          "internalType": "uint128",
          "name": "",
          "type": "uint128"
        }
      ],
      "stateMutability": "view",
      "type": "function"
    },
    {
      "inputs": [
        {
          "internalType": "address",
          "name": "token",
          "type": "address"
        },
        {
          "internalType": "uint256",
          "name": "numToken",
          "type": "uint256"
        },
        {
          "internalType": "uint256",
          "name": "numEthLimit",
          "type": "uint256"
        },
        {
          "internalType": "uint256",
          "name": "blockTimeDeadline",
          "type": "uint256"
        }
      ],
      "name": "sell",
      "outputs": [],
      "stateMutability": "nonpayable",
      "type": "function"
    },
    {
      "inputs": [
        {
          "internalType": "address",
          "name": "token",
          "type": "address"
        },
        {
          "internalType": "uint256",
          "name": "numToken",
          "type": "uint256"
        },
        {
          "internalType": "uint256",
          "name": "numEthLimit",
          "type": "uint256"
        },
        {
          "internalType": "uint256",
          "name": "blockTimeDeadline",
          "type": "uint256"
        }
      ],
      "name": "sellAndWithdraw",
      "outputs": [],
      "stateMutability": "nonpayable",
      "type": "function"
    },
    {
      "inputs": [
        {
          "internalType": "address",
          "name": "",
          "type": "address"
        },
        {
          "internalType": "address",
          "name": "",
          "type": "address"
        }
      ],
      "name": "tokenPriceData",
      "outputs": [
        {
          "internalType": "uint256",
          "name": "ethSum",
          "type": "uint256"
        },
        {
          "internalType": "uint256",
          "name": "tokenSum",
          "type": "uint256"
        },
        {
          "internalType": "uint256",
          "name": "weightedBlockSum",
          "type": "uint256"
        },
        {
          "internalType": "uint256",
          "name": "latestBlock",
          "type": "uint256"
        }
      ],
      "stateMutability": "view",
      "type": "function"
    },
    {
      "inputs": [],
      "name": "vnlContract",
      "outputs": [
        {
          "internalType": "contract VanillaGovernanceToken",
          "name": "",
          "type": "address"
        }
      ],
      "stateMutability": "view",
      "type": "function"
    },
    {
      "inputs": [
        {
          "internalType": "address",
          "name": "",
          "type": "address"
        }
      ],
      "name": "wethReserves",
      "outputs": [
        {
          "internalType": "uint128",
          "name": "",
          "type": "uint128"
        }
      ],
      "stateMutability": "view",
      "type": "function"
    },
    {
      "stateMutability": "payable",
      "type": "receive"
    }
  ],
  "bytecode": "0x6101206040523480156200001257600080fd5b506040516200354e3803806200354e833981810160405260408110156200003857600080fd5b8151602083018051604051929492938301929190846401000000008211156200006057600080fd5b9083019060208201858111156200007657600080fd5b82518660208202830111640100000000821117156200009457600080fd5b82525081516020918201928201910280838360005b83811015620000c3578181015183820152602001620000a9565b505050509050016040525050508160018282828260008390506000816001600160a01b031663ad5c46486040518163ffffffff1660e01b815260040160206040518083038186803b1580156200011857600080fd5b505afa1580156200012d573d6000803e3d6000fd5b505050506040513d60208110156200014457600080fd5b50516040805163c45a015560e01b815290519192506000916001600160a01b0385169163c45a0155916004808301926020929190829003018186803b1580156200018d57600080fd5b505afa158015620001a2573d6000803e3d6000fd5b505050506040513d6020811015620001b957600080fd5b5051905060005b845181101562000371576000858281518110620001d957fe5b602002602001015190506000836001600160a01b031663e6a4390583876040518363ffffffff1660e01b815260040180836001600160a01b03166001600160a01b03168152602001826001600160a01b03166001600160a01b031681526020019250505060206040518083038186803b1580156200025657600080fd5b505afa1580156200026b573d6000803e3d6000fd5b505050506040513d60208110156200028257600080fd5b5051604080518082019091526002815261309960f11b60208201529091506001600160a01b038216620003365760405162461bcd60e51b81526004018080602001828103825283818151815260200191508051906020019080838360005b83811015620002fa578181015183820152602001620002e0565b50505050905090810190601f168015620003285780820380516001836020036101000a031916815260200191505b509250505060405180910390fd5b50506001600160a01b0316600090815260208190526040902080546001600160801b0319166001600160801b038816179055600101620001c0565b506001600160601b0319606092831b811660a052911b1660805250506040516200039e92509050620004ce565b604051809103906000f080158015620003bb573d6000803e3d6000fd5b5060601b6001600160601b03191660e0524360c052604080518082019091526002815261623560f01b60208201526001600160801b038316620004415760405162461bcd60e51b8152602060048201818152835160248401528351909283926044909101919085019080838360008315620002fa578181015183820152602001620002e0565b50600081511160405180604001604052806002815260200161311b60f11b81525090620004b15760405162461bcd60e51b8152602060048201818152835160248401528351909283926044909101919085019080838360008315620002fa578181015183820152602001620002e0565b505060801b6001600160801b0319166101005250620004dc915050565b610d5880620027f683390190565b60805160601c60a05160601c60c05160e05160601c6101005160801c61227a6200057c600039806106f552806108b25280610e2252806110d75280611120525080610ac25280610e7552508061088d52806108fa5280610dfd528061103d528061107352508060bb52806105555280610a39528061124c5280611325528061184a528061187b5280611c5c52508061122a5280611828525061227a6000f3fe6080604052600436106100ab5760003560e01c806392cdbac51161006457806392cdbac5146102a0578063b53880a6146102e5578063ba322a921461032c578063cab892491461035e578063e6ea96f81461038f578063e85e1c4f146103c2576100e4565b80631622dbe4146100e9578063193b33a11461012e57806321e7345e1461017357806338eea386146101a45780637c30be4e14610205578063900cf0cf14610279576100e4565b366100e457336001600160a01b037f000000000000000000000000000000000000000000000000000000000000000016146100e257fe5b005b600080fd5b3480156100f557600080fd5b506100e26004803603608081101561010c57600080fd5b506001600160a01b038135169060208101359060408101359060600135610415565b34801561013a57600080fd5b506100e26004803603608081101561015157600080fd5b506001600160a01b0381351690602081013590604081013590606001356104d3565b34801561017f57600080fd5b506101886106f3565b604080516001600160801b039092168252519081900360200190f35b3480156101b057600080fd5b506101df600480360360408110156101c757600080fd5b506001600160a01b0381358116916020013516610717565b604080519485526020850193909352838301919091526060830152519081900360800190f35b34801561021157600080fd5b5061024e6004803603608081101561022857600080fd5b506001600160a01b03813581169160208101359091169060408101359060600135610747565b6040805195865260208601949094528484019290925260608401526080830152519081900360a00190f35b34801561028557600080fd5b5061028e6108f8565b60408051918252519081900360200190f35b3480156102ac57600080fd5b506100e2600480360360808110156102c357600080fd5b506001600160a01b03813516906020810135906040810135906060013561091c565b3480156102f157600080fd5b506103186004803603602081101561030857600080fd5b50356001600160a01b031661099e565b604080519115158252519081900360200190f35b6100e26004803603606081101561034257600080fd5b506001600160a01b0381351690602081013590604001356109c8565b34801561036a57600080fd5b50610373610ac0565b604080516001600160a01b039092168252519081900360200190f35b34801561039b57600080fd5b50610188600480360360208110156103b257600080fd5b50356001600160a01b0316610ae4565b3480156103ce57600080fd5b5061028e600480360360c08110156103e557600080fd5b508035906020810135906040810135906060810135906001600160801b03608082013581169160a0013516610aff565b804281101560405180604001604052806002815260200161623160f01b815250906104be5760405162461bcd60e51b81526004018080602001828103825283818151815260200191508051906020019080838360005b8381101561048357818101518382015260200161046b565b50505050905090810190601f1680156104b05780820380516001836020036101000a031916815260200191505b509250505060405180910390fd5b506104cc3333878787610b1c565b5050505050565b804281101560405180604001604052806002815260200161623160f01b8152509061053f5760405162461bcd60e51b815260206004820181815283516024840152835190928392604490910191908501908083836000831561048357818101518382015260200161046b565b50600061054f3330888888610c83565b905060007f00000000000000000000000000000000000000000000000000000000000000009050806001600160a01b0316632e1a7d4d836040518263ffffffff1660e01b815260040180828152602001915050600060405180830381600087803b1580156105bc57600080fd5b505af11580156105d0573d6000803e3d6000fd5b505060408051600080825260208201928390528151909450339350869290819081908082805b602083106106155780518252601f1990920191602091820191016105f6565b6001836020036101000a03801982511681845116808217855250505050505090500191505060006040518083038185875af1925050503d8060008114610677576040519150601f19603f3d011682016040523d82523d6000602084013e61067c565b606091505b505090508060405180604001604052806002815260200161311960f11b815250906106e85760405162461bcd60e51b815260206004820181815283516024840152835190928392604490910191908501908083836000831561048357818101518382015260200161046b565b505050505050505050565b7f000000000000000000000000000000000000000000000000000000000000000081565b60016020818152600093845260408085209091529183529120805491810154600282015460039092015490919084565b6001600160a01b03808516600090815260016020818152604080842094881684529381528383209182015484518086019095526002855261188d60f21b91850191909152919283928392839283926107e05760405162461bcd60e51b815260206004820181815283516024840152835190928392604490910191908501908083836000831561048357818101518382015260200161046b565b506001810154815461080a91906107fe908a9063ffffffff610f4a16565b9063ffffffff610fac16565b955061082781600101548260020154610fac90919063ffffffff16565b9450858811156108df576000610843898863ffffffff610fee16565b6001600160a01b038b166000908152602081905260409020549091506001600160801b031661087187611030565b955061088682826001600160801b03166110d2565b94506108d67f0000000000000000000000000000000000000000000000000000000000000000884385857f0000000000000000000000000000000000000000000000000000000000000000611153565b935050506108ec565b6000935060009250600091505b50945094509450945094565b7f000000000000000000000000000000000000000000000000000000000000000081565b804281101560405180604001604052806002815260200161623160f01b815250906109885760405162461bcd60e51b815260206004820181815283516024840152835190928392604490910191908501908083836000831561048357818101518382015260200161046b565b506109963333878787610c83565b505050505050565b6001600160a01b0381166000908152602081905260409020546001600160801b031615155b919050565b804281101560405180604001604052806002815260200161623160f01b81525090610a345760405162461bcd60e51b815260206004820181815283516024840152835190928392604490910191908501908083836000831561048357818101518382015260200161046b565b5060007f000000000000000000000000000000000000000000000000000000000000000090506000349050816001600160a01b031663d0e30db0826040518263ffffffff1660e01b81526004016000604051808303818588803b158015610a9a57600080fd5b505af1158015610aae573d6000803e3d6000fd5b50505050506109963330888489610b1c565b7f000000000000000000000000000000000000000000000000000000000000000081565b6000602081905290815260409020546001600160801b031681565b6000610b0f878787878787611153565b90505b9695505050505050565b6001600160a01b038086166000908152600160209081526040808320938716835292815290829020600381015483518085019094526002845261623360f01b9284019290925291904311610bb15760405162461bcd60e51b815260206004820181815283516024840152835190928392604490910191908501908083836000831561048357818101518382015260200161046b565b50436003820155600080610bc78686868a61121f565b84549193506001600160801b03169150610be7908663ffffffff6117c316565b83556001830154610bfe908363ffffffff6117c316565b6001840155610c27610c16438463ffffffff610f4a16565b60028501549063ffffffff6117c316565b6002840155604080518681526020810184905280820183905290516001600160a01b0388169133917f377aadedb6b2a771959584d10a6a36eccb5f56b4eb3a48525f76108d2660d8d49181900360600190a35050505050505050565b6001600160a01b0380861660009081526001602090815260408083209387168352928152828220600381015484518086019095526002855261623360f01b928501929092529192904311610d185760405162461bcd60e51b815260206004820181815283516024840152835190928392604490910191908501908083836000831561048357818101518382015260200161046b565b50436003820155600080610d2e8787878b61181d565b915091506000610d5384600101546107fe86600001548a610f4a90919063ffffffff16565b90506000610d7285600101548660020154610fac90919063ffffffff16565b90506000610d8d898760010154610fee90919063ffffffff16565b90506000838611610d9f576000610daf565b610daf868563ffffffff610fee16565b9050610dc48760000154838960010154611d77565b875560028701546001880154610ddc91908490611d77565b6002880155600187018290556000610df38c61099e565b15610ed557610e467f00000000000000000000000000000000000000000000000000000000000000008543858a7f0000000000000000000000000000000000000000000000000000000000000000611153565b90508015610ed557604080516340c10f1960e01b81523360048201526024810183905290516001600160a01b037f000000000000000000000000000000000000000000000000000000000000000016916340c10f1991604480830192600092919082900301818387803b158015610ebc57600080fd5b505af1158015610ed0573d6000803e3d6000fd5b505050505b604080518c815260208101899052808201849052606081018390526001600160801b038816608082015290516001600160a01b038e169133917f7bb7d75a26cf0ec5e66d271f759924252ed21586b985a2dbfa2e8bdaf249df499181900360a00190a350949c9b505050505050505050505050565b600082610f5957506000610fa6565b82820282848281610f6657fe5b0414610fa35760405162461bcd60e51b81526004018080602001828103825260218152602001806122246021913960400191505060405180910390fd5b90505b92915050565b6000610fa383836040518060400160405280601a81526020017f536166654d6174683a206469766973696f6e206279207a65726f000000000000815250611d8d565b6000610fa383836040518060400160405280601e81526020017f536166654d6174683a207375627472616374696f6e206f766572666c6f770000815250611df2565b60004382148061105f57507f000000000000000000000000000000000000000000000000000000000000000043145b1561106c575060006109c3565b43828103907f000000000000000000000000000000000000000000000000000000000000000090036110ca6110a7828063ffffffff610f4a16565b6107fe620f42406110be868063ffffffff610f4a16565b9063ffffffff610f4a16565b949350505050565b6000817f00000000000000000000000000000000000000000000000000000000000000006001600160801b03168401111561110f57506000610fa6565b610fa3826107fe6001600160801b037f00000000000000000000000000000000000000000000000000000000000000001686830303620f424063ffffffff610f4a16565b60008361116257506000610b12565b826001600160801b0316826001600160801b03168501111561118657506000610b12565b8585141561119657506000610b12565b868514156111a657506000610b12565b6001600160801b038083169084168590030386860388870360006111e36111d3848063ffffffff610f4a16565b6110be8a8763ffffffff610f4a16565b90506111f5828063ffffffff610f4a16565b876001600160801b0316828161120757fe5b048161120f57fe5b049b9a5050505050505050505050565b6000806000806112707f0000000000000000000000000000000000000000000000000000000000000000897f0000000000000000000000000000000000000000000000000000000000000000611e4c565b604080516370a0823160e01b815230600482018190529151939550919350849290916000916001600160a01b038d16916370a08231916024808301926020929190829003018186803b1580156112c557600080fd5b505afa1580156112d9573d6000803e3d6000fd5b505050506040513d60208110156112ef57600080fd5b5051604080516323b872dd60e01b81526001600160a01b038b811660048301528881166024830152604482018e905291519293507f0000000000000000000000000000000000000000000000000000000000000000909116916323b872dd916064808201926020929091908290030181600087803b15801561137057600080fd5b505af1158015611384573d6000803e3d6000fd5b505050506040513d602081101561139a57600080fd5b5050831561152f57600080846001600160a01b0316630902f1ac6040518163ffffffff1660e01b815260040160606040518083038186803b1580156113de57600080fd5b505afa1580156113f2573d6000803e3d6000fd5b505050506040513d606081101561140857600080fd5b50805160209091015190925090506001600160a01b03851663022c0d9f61143c8e6001600160701b03808616908716611f69565b60408051600080825260208201928390526001600160e01b031960e086901b16835260248201848152604483018290526001600160a01b038b166064840152608060848401908152835160a4850181905292948c949360c4850191908083838a5b838110156114b557818101518382015260200161149d565b50505050905090810190601f1680156114e25780820380516001836020036101000a031916815260200191505b5095505050505050600060405180830381600087803b15801561150457600080fd5b505af1158015611518573d6000803e3d6000fd5b505050506115268d82611fbe565b975050506116c4565b600080846001600160a01b0316630902f1ac6040518163ffffffff1660e01b815260040160606040518083038186803b15801561156b57600080fd5b505afa15801561157f573d6000803e3d6000fd5b505050506040513d606081101561159557600080fd5b50805160209091015190925090506001600160a01b03851663022c0d9f60006115cb8f6001600160701b03808816908716611f69565b604080516000808252602082019092528991506040518563ffffffff1660e01b815260040180858152602001848152602001836001600160a01b03166001600160a01b0316815260200180602001828103825283818151815260200191508051906020019080838360005b8381101561164e578181015183820152602001611636565b50505050905090810190601f16801561167b5780820380516001836020036101000a031916815260200191505b5095505050505050600060405180830381600087803b15801561169d57600080fd5b505af11580156116b1573d6000803e3d6000fd5b505050506116bf8d83611fbe565b975050505b808b6001600160a01b03166370a08231846040518263ffffffff1660e01b815260040180826001600160a01b03166001600160a01b0316815260200191505060206040518083038186803b15801561171b57600080fd5b505afa15801561172f573d6000803e3d6000fd5b505050506040513d602081101561174557600080fd5b5051604080518082019091526002815261613160f01b60208201529190039750898810156117b45760405162461bcd60e51b815260206004820181815283516024840152835190928392604490910191908501908083836000831561048357818101518382015260200161046b565b50505050505094509492505050565b600082820183811015610fa3576040805162461bcd60e51b815260206004820152601b60248201527f536166654d6174683a206164646974696f6e206f766572666c6f770000000000604482015290519081900360640190fd5b60008060008061186e7f0000000000000000000000000000000000000000000000000000000000000000897f0000000000000000000000000000000000000000000000000000000000000000611e4c565b91509150600082905060007f00000000000000000000000000000000000000000000000000000000000000006001600160a01b03166370a08231886040518263ffffffff1660e01b815260040180826001600160a01b03166001600160a01b0316815260200191505060206040518083038186803b1580156118ef57600080fd5b505afa158015611903573d6000803e3d6000fd5b505050506040513d602081101561191957600080fd5b505190506119288a858b61203f565b8215611ac757600080836001600160a01b0316630902f1ac6040518163ffffffff1660e01b815260040160606040518083038186803b15801561196a57600080fd5b505afa15801561197e573d6000803e3d6000fd5b505050506040513d606081101561199457600080fd5b50805160209091015190925090506001600160a01b03841663022c0d9f60006119ca8e6001600160701b03808816908716611f69565b604080516000808252602082019092528e91506040518563ffffffff1660e01b815260040180858152602001848152602001836001600160a01b03166001600160a01b0316815260200180602001828103825283818151815260200191508051906020019080838360005b83811015611a4d578181015183820152602001611a35565b50505050905090810190601f168015611a7a5780820380516001836020036101000a031916815260200191505b5095505050505050600060405180830381600087803b158015611a9c57600080fd5b505af1158015611ab0573d6000803e3d6000fd5b50505050611abe8c826121a2565b96505050611c59565b600080836001600160a01b0316630902f1ac6040518163ffffffff1660e01b815260040160606040518083038186803b158015611b0357600080fd5b505afa158015611b17573d6000803e3d6000fd5b505050506040513d6060811015611b2d57600080fd5b50805160209091015190925090506001600160a01b03841663022c0d9f611b618d6001600160701b03808616908716611f69565b604080516000808252602082019092528d906040518563ffffffff1660e01b815260040180858152602001848152602001836001600160a01b03166001600160a01b0316815260200180602001828103825283818151815260200191508051906020019080838360005b83811015611be3578181015183820152602001611bcb565b50505050905090810190601f168015611c105780820380516001836020036101000a031916815260200191505b5095505050505050600060405180830381600087803b158015611c3257600080fd5b505af1158015611c46573d6000803e3d6000fd5b50505050611c548c836121a2565b965050505b807f00000000000000000000000000000000000000000000000000000000000000006001600160a01b03166370a08231896040518263ffffffff1660e01b815260040180826001600160a01b03166001600160a01b0316815260200191505060206040518083038186803b158015611cd057600080fd5b505afa158015611ce4573d6000803e3d6000fd5b505050506040513d6020811015611cfa57600080fd5b5051604080518082019091526002815261613160f01b6020820152919003965088871015611d695760405162461bcd60e51b815260206004820181815283516024840152835190928392604490910191908501908083836000831561048357818101518382015260200161046b565b505050505094509492505050565b60006110ca826107fe868663ffffffff610f4a16565b60008183611ddc5760405162461bcd60e51b815260206004820181815283516024840152835190928392604490910191908501908083836000831561048357818101518382015260200161046b565b506000838581611de857fe5b0495945050505050565b60008184841115611e445760405162461bcd60e51b815260206004820181815283516024840152835190928392604490910191908501908083836000831561048357818101518382015260200161046b565b505050900390565b60006001600160a01b03808316908416108481611ea157604080516bffffffffffffffffffffffff19606087811b8216602084015288901b166034820152815160288183030181526048909101909152611edb565b604080516bffffffffffffffffffffffff19606088811b8216602084015287901b1660348201528151602881830301815260489091019091525b8051906020012060405160200180806001600160f81b0319815250600101836001600160a01b03166001600160a01b031660601b8152601401828152602001807f96e8ac4277198ff8b6f785478aa9a39f403cb768dd02cbee326c3e7da348845f815250602001925050506040516020818303038152906040528051906020012060001c9150935093915050565b600080611f7e856103e563ffffffff610f4a16565b9050611fb5611fa582611f99876103e863ffffffff610f4a16565b9063ffffffff6117c316565b6107fe858463ffffffff610f4a16565b95945050505050565b6001600160a01b0382166000908152602081905260409020546001600160801b031680611fea57610fa6565b806001600160801b0316826001600160701b03161115610fa657506001600160a01b038216600090815260208190526040902080546001600160801b0319166001600160701b03831690811790915592915050565b604080516001600160a01b038481166024830152604480830185905283518084039091018152606490920183526020820180516001600160e01b031663a9059cbb60e01b178152925182516000946060949389169392918291908083835b602083106120bc5780518252601f19909201916020918201910161209d565b6001836020036101000a0380198251168184511680821785525050505050509050019150506000604051808303816000865af19150503d806000811461211e576040519150601f19603f3d011682016040523d82523d6000602084013e612123565b606091505b5091509150818015612151575080511580612151575080806020019051602081101561214e57600080fd5b50515b6104cc576040805162461bcd60e51b815260206004820152601f60248201527f5472616e7366657248656c7065723a205452414e534645525f4641494c454400604482015290519081900360640190fd5b6001600160a01b0382166000908152602081905260409020546001600160801b0316806121ce57610fa6565b806001600160801b0316826001600160701b03161015610fa657506001600160a01b038216600090815260208190526040902080546001600160801b0319166001600160701b0383169081179091559291505056fe536166654d6174683a206d756c7469706c69636174696f6e206f766572666c6f77a2646970667358221220a39f0eb49b25a558cfdc4bb325ec9ddf9aeb21c4a35b9471fb239b4dff38025b64736f6c6343000608003360a060405234801561001057600080fd5b506040518060400160405280600781526020016656616e696c6c6160c81b8152506040518060400160405280600381526020016215939360ea1b81525081600390805190602001906100639291906100bc565b5080516100779060049060208401906100bc565b50506005805460ff19166012179055503360601b6080526100a1600c6001600160e01b036100a616565b610157565b6005805460ff191660ff92909216919091179055565b828054600181600116156101000203166002900490600052602060002090601f016020900481019282601f106100fd57805160ff191683800117855561012a565b8280016001018555821561012a579182015b8281111561012a57825182559160200191906001019061010f565b5061013692915061013a565b5090565b61015491905b808211156101365760008155600101610140565b90565b60805160601c610be4610174600039806104b05250610be46000f3fe608060405234801561001057600080fd5b50600436106100b45760003560e01c806340c10f191161007157806340c10f191461021057806370a082311461023e57806395d89b4114610264578063a457c2d71461026c578063a9059cbb14610298578063dd62ed3e146102c4576100b4565b806306fdde03146100b9578063095ea7b31461013657806318160ddd1461017657806323b872dd14610190578063313ce567146101c657806339509351146101e4575b600080fd5b6100c16102f2565b6040805160208082528351818301528351919283929083019185019080838360005b838110156100fb5781810151838201526020016100e3565b50505050905090810190601f1680156101285780820380516001836020036101000a031916815260200191505b509250505060405180910390f35b6101626004803603604081101561014c57600080fd5b506001600160a01b038135169060200135610388565b604080519115158252519081900360200190f35b61017e6103a5565b60408051918252519081900360200190f35b610162600480360360608110156101a657600080fd5b506001600160a01b038135811691602081013590911690604001356103ab565b6101ce610438565b6040805160ff9092168252519081900360200190f35b610162600480360360408110156101fa57600080fd5b506001600160a01b038135169060200135610441565b61023c6004803603604081101561022657600080fd5b506001600160a01b038135169060200135610495565b005b61017e6004803603602081101561025457600080fd5b50356001600160a01b0316610571565b6100c161058c565b6101626004803603604081101561028257600080fd5b506001600160a01b0381351690602001356105ed565b610162600480360360408110156102ae57600080fd5b506001600160a01b03813516906020013561065b565b61017e600480360360408110156102da57600080fd5b506001600160a01b038135811691602001351661066f565b60038054604080516020601f600260001961010060018816150201909516949094049384018190048102820181019092528281526060939092909183018282801561037e5780601f106103535761010080835404028352916020019161037e565b820191906000526020600020905b81548152906001019060200180831161036157829003601f168201915b5050505050905090565b600061039c61039561069a565b848461069e565b50600192915050565b60025490565b60006103b884848461078a565b61042e846103c461069a565b61042985604051806060016040528060288152602001610b19602891396001600160a01b038a1660009081526001602052604081209061040261069a565b6001600160a01b03168152602081019190915260400160002054919063ffffffff6108f116565b61069e565b5060019392505050565b60055460ff1690565b600061039c61044e61069a565b84610429856001600061045f61069a565b6001600160a01b03908116825260208083019390935260409182016000908120918c16815292529020549063ffffffff61094b16565b604080518082019091526002815261633160f01b60208201527f00000000000000000000000000000000000000000000000000000000000000006001600160a01b031633146105625760405162461bcd60e51b81526004018080602001828103825283818151815260200191508051906020019080838360005b8381101561052757818101518382015260200161050f565b50505050905090810190601f1680156105545780820380516001836020036101000a031916815260200191505b509250505060405180910390fd5b5061056d82826109ac565b5050565b6001600160a01b031660009081526020819052604090205490565b60048054604080516020601f600260001961010060018816150201909516949094049384018190048102820181019092528281526060939092909183018282801561037e5780601f106103535761010080835404028352916020019161037e565b600061039c6105fa61069a565b8461042985604051806060016040528060258152602001610b8a602591396001600061062461069a565b6001600160a01b03908116825260208083019390935260409182016000908120918d1681529252902054919063ffffffff6108f116565b600061039c61066861069a565b848461078a565b6001600160a01b03918216600090815260016020908152604080832093909416825291909152205490565b3390565b6001600160a01b0383166106e35760405162461bcd60e51b8152600401808060200182810382526024815260200180610b666024913960400191505060405180910390fd5b6001600160a01b0382166107285760405162461bcd60e51b8152600401808060200182810382526022815260200180610ad16022913960400191505060405180910390fd5b6001600160a01b03808416600081815260016020908152604080832094871680845294825291829020859055815185815291517f8c5be1e5ebec7d5bd14f71427d1e84f3dd0314c0f7b2291e5b200ac8c7c3b9259281900390910190a3505050565b6001600160a01b0383166107cf5760405162461bcd60e51b8152600401808060200182810382526025815260200180610b416025913960400191505060405180910390fd5b6001600160a01b0382166108145760405162461bcd60e51b8152600401808060200182810382526023815260200180610aae6023913960400191505060405180910390fd5b61081f838383610aa8565b61086281604051806060016040528060268152602001610af3602691396001600160a01b038616600090815260208190526040902054919063ffffffff6108f116565b6001600160a01b038085166000908152602081905260408082209390935590841681522054610897908263ffffffff61094b16565b6001600160a01b038084166000818152602081815260409182902094909455805185815290519193928716927fddf252ad1be2c89b69c2b068fc378daa952ba7f163c4a11628f55a4df523b3ef92918290030190a3505050565b600081848411156109435760405162461bcd60e51b815260206004820181815283516024840152835190928392604490910191908501908083836000831561052757818101518382015260200161050f565b505050900390565b6000828201838110156109a5576040805162461bcd60e51b815260206004820152601b60248201527f536166654d6174683a206164646974696f6e206f766572666c6f770000000000604482015290519081900360640190fd5b9392505050565b6001600160a01b038216610a07576040805162461bcd60e51b815260206004820152601f60248201527f45524332303a206d696e7420746f20746865207a65726f206164647265737300604482015290519081900360640190fd5b610a1360008383610aa8565b600254610a26908263ffffffff61094b16565b6002556001600160a01b038216600090815260208190526040902054610a52908263ffffffff61094b16565b6001600160a01b0383166000818152602081815260408083209490945583518581529351929391927fddf252ad1be2c89b69c2b068fc378daa952ba7f163c4a11628f55a4df523b3ef9281900390910190a35050565b50505056fe45524332303a207472616e7366657220746f20746865207a65726f206164647265737345524332303a20617070726f766520746f20746865207a65726f206164647265737345524332303a207472616e7366657220616d6f756e7420657863656564732062616c616e636545524332303a207472616e7366657220616d6f756e74206578636565647320616c6c6f77616e636545524332303a207472616e736665722066726f6d20746865207a65726f206164647265737345524332303a20617070726f76652066726f6d20746865207a65726f206164647265737345524332303a2064656372656173656420616c6c6f77616e63652062656c6f77207a65726fa2646970667358221220b27dc83fe5322a9f310045b4c79baff226de25918af17cf317616aaf0e1cda0664736f6c63430006080033",
  "linkReferences": {},
  "deployedLinkReferences": {}
}