{
  "address": "0xE13E9010e818D48df1A0415021d9526ef845e2Cd",
  "abi": [
    {
      "inputs": [
        {
          "internalType": "address",
          "name": "uniswapRouter",
          "type": "address"
        },
        {
          "internalType": "uint128",
          "name": "limit",
          "type": "uint128"
        },
        {
          "internalType": "address[]",
          "name": "safeList",
          "type": "address[]"
        }
      ],
      "stateMutability": "nonpayable",
      "type": "constructor"
    },
    {
      "anonymous": false,
      "inputs": [
        {
          "indexed": true,
          "internalType": "address",
          "name": "buyer",
          "type": "address"
        },
        {
          "indexed": true,
          "internalType": "address",
          "name": "token",
          "type": "address"
        },
        {
          "indexed": false,
          "internalType": "uint256",
          "name": "eth",
          "type": "uint256"
        },
        {
          "indexed": false,
          "internalType": "uint256",
          "name": "amount",
          "type": "uint256"
        },
        {
          "indexed": false,
          "internalType": "uint256",
          "name": "reserve",
          "type": "uint256"
        }
      ],
      "name": "TokensPurchased",
      "type": "event"
    },
    {
      "anonymous": false,
      "inputs": [
        {
          "indexed": true,
          "internalType": "address",
          "name": "seller",
          "type": "address"
        },
        {
          "indexed": true,
          "internalType": "address",
          "name": "token",
          "type": "address"
        },
        {
          "indexed": false,
          "internalType": "uint256",
          "name": "amount",
          "type": "uint256"
        },
        {
          "indexed": false,
          "internalType": "uint256",
          "name": "eth",
          "type": "uint256"
        },
        {
          "indexed": false,
          "internalType": "uint256",
          "name": "profit",
          "type": "uint256"
        },
        {
          "indexed": false,
          "internalType": "uint256",
          "name": "reward",
          "type": "uint256"
        },
        {
          "indexed": false,
          "internalType": "uint256",
          "name": "reserve",
          "type": "uint256"
        }
      ],
      "name": "TokensSold",
      "type": "event"
    },
    {
      "inputs": [
        {
          "internalType": "address",
          "name": "token",
          "type": "address"
        },
        {
          "internalType": "uint256",
          "name": "numEth",
          "type": "uint256"
        },
        {
          "internalType": "uint256",
          "name": "numToken",
          "type": "uint256"
        },
        {
          "internalType": "uint256",
          "name": "blockTimeDeadline",
          "type": "uint256"
        }
      ],
      "name": "buy",
      "outputs": [],
      "stateMutability": "nonpayable",
      "type": "function"
    },
    {
      "inputs": [
        {
          "internalType": "address",
          "name": "token",
          "type": "address"
        },
        {
          "internalType": "uint256",
          "name": "numToken",
          "type": "uint256"
        },
        {
          "internalType": "uint256",
          "name": "blockTimeDeadline",
          "type": "uint256"
        }
      ],
      "name": "depositAndBuy",
      "outputs": [],
      "stateMutability": "payable",
      "type": "function"
    },
    {
      "inputs": [],
      "name": "epoch",
      "outputs": [
        {
          "internalType": "uint256",
          "name": "",
          "type": "uint256"
        }
      ],
      "stateMutability": "view",
      "type": "function"
    },
    {
      "inputs": [
        {
          "internalType": "address",
          "name": "owner",
          "type": "address"
        },
        {
          "internalType": "address",
          "name": "token",
          "type": "address"
        },
        {
          "internalType": "uint256",
          "name": "numEth",
          "type": "uint256"
        },
        {
          "internalType": "uint256",
          "name": "numTokensSold",
          "type": "uint256"
        }
      ],
      "name": "estimateReward",
      "outputs": [
        {
          "internalType": "uint256",
          "name": "profitablePrice",
          "type": "uint256"
        },
        {
          "internalType": "uint256",
          "name": "avgBlock",
          "type": "uint256"
        },
        {
          "internalType": "uint256",
          "name": "htrs",
          "type": "uint256"
        },
        {
          "internalType": "uint256",
          "name": "vpc",
          "type": "uint256"
        },
        {
          "internalType": "uint256",
          "name": "reward",
          "type": "uint256"
        }
      ],
      "stateMutability": "view",
      "type": "function"
    },
    {
      "inputs": [
        {
          "internalType": "address",
          "name": "token",
          "type": "address"
        }
      ],
      "name": "isTokenRewarded",
      "outputs": [
        {
          "internalType": "bool",
          "name": "",
          "type": "bool"
        }
      ],
      "stateMutability": "view",
      "type": "function"
    },
    {
      "inputs": [],
      "name": "reserveLimit",
      "outputs": [
        {
          "internalType": "uint128",
          "name": "",
          "type": "uint128"
        }
      ],
      "stateMutability": "view",
      "type": "function"
    },
    {
      "inputs": [
        {
          "internalType": "address",
          "name": "token",
          "type": "address"
        },
        {
          "internalType": "uint256",
          "name": "numToken",
          "type": "uint256"
        },
        {
          "internalType": "uint256",
          "name": "numEthLimit",
          "type": "uint256"
        },
        {
          "internalType": "uint256",
          "name": "blockTimeDeadline",
          "type": "uint256"
        }
      ],
      "name": "sell",
      "outputs": [],
      "stateMutability": "nonpayable",
      "type": "function"
    },
    {
      "inputs": [
        {
          "internalType": "address",
          "name": "token",
          "type": "address"
        },
        {
          "internalType": "uint256",
          "name": "numToken",
          "type": "uint256"
        },
        {
          "internalType": "uint256",
          "name": "numEthLimit",
          "type": "uint256"
        },
        {
          "internalType": "uint256",
          "name": "blockTimeDeadline",
          "type": "uint256"
        }
      ],
      "name": "sellAndWithdraw",
      "outputs": [],
      "stateMutability": "nonpayable",
      "type": "function"
    },
    {
      "inputs": [
        {
          "internalType": "address",
          "name": "",
          "type": "address"
        },
        {
          "internalType": "address",
          "name": "",
          "type": "address"
        }
      ],
      "name": "tokenPriceData",
      "outputs": [
        {
          "internalType": "uint256",
          "name": "ethSum",
          "type": "uint256"
        },
        {
          "internalType": "uint256",
          "name": "tokenSum",
          "type": "uint256"
        },
        {
          "internalType": "uint256",
          "name": "weightedBlockSum",
          "type": "uint256"
        },
        {
          "internalType": "uint256",
          "name": "latestBlock",
          "type": "uint256"
        }
      ],
      "stateMutability": "view",
      "type": "function"
    },
    {
      "inputs": [],
      "name": "vnlContract",
      "outputs": [
        {
          "internalType": "contract VanillaGovernanceToken",
          "name": "",
          "type": "address"
        }
      ],
      "stateMutability": "view",
      "type": "function"
    },
    {
      "inputs": [
        {
          "internalType": "address",
          "name": "",
          "type": "address"
        }
      ],
      "name": "wethReserves",
      "outputs": [
        {
          "internalType": "uint128",
          "name": "",
          "type": "uint128"
        }
      ],
      "stateMutability": "view",
      "type": "function"
    },
    {
      "stateMutability": "payable",
      "type": "receive"
    }
  ],
  "transactionHash": "0x55d97be881ae9313cf78ebe1c28b15e6269b5938cc78fa3734c3769587cf6e7e",
  "args": [
    "0x7a250d5630B4cF539739dF2C5dAcb4c659F2488D",
    "500000000000000000000",
    [
      "0x7fc66500c84a76ad7e9c93437bfc5ac33e2ddae9",
      "0xff20817765cb7f73d4bde2e66e067e58d11095c2",
      "0xd46ba6d942050d489dbd938a2c909a5d5039a161",
      "0xa117000000f279d81a1d3cc75430faa017fa5a2e",
      "0x1337def18c680af1f9f45cbcab6309562975b1dd",
      "0x0d8775f648430679a709e98d2b0cb6250d2887ef",
      "0xc00e94cb662c3520282e6f5717214004a7f26888",
      "0xd533a949740bb3306d119cc777fa900ba034cd52",
      "0x6b175474e89094c44da98b954eedeac495271d0f",
      "0x1494ca1f11d487c2bbe4543e90080aeba4ba3c2b",
      "0x6810e776880c02933d47db1b9fc05908e5386b96",
      "0x514910771af9ca656af840dff83e8264ecf986ca",
      "0x9f8f72aa9304c8b593d555f12ef6589cc3a579a2",
      "0xd26114cd6ee289accf82350c8d8487fedb8a0c07",
      "0x408e41876cccdc0f92210600ef50372656052a38",
      "0xd291e7a03283640fdc51b121ac401383a46cc623",
      "0x73968b9a57c6e53d41345fd57a6e6ae27d6cdb2f",
      "0xb753428af26e81097e7fd17f40c88aaa3e04902c",
      "0xc011a73ee8576fb46f5e1c5751ca3b9fe0af2a6f",
      "0xe53ec727dbdeb9e2d5456c3be40cff031ab40a55",
      "0x6b3595068778dd592e39a122f4f5a5cf09c90fe2",
      "0x4c19596f5aaff459fa38b0f7ed92f11ae6543784",
      "0x0000000000085d4780b73119b644ae5ecd22b376",
      "0x04fa0d235c4abf4bcf4787af4cf447de572ef828",
      "0x1f9840a85d5af5bf1d1762f925bdaddc4201f984",
      "0xa0b86991c6218b36c1d19d4a2e9eb0ce3606eb48",
      "0xdac17f958d2ee523a2206206994597c13d831ec7",
      "0x1b40183efb4dd766f11bda7a7c3ad8982e998421",
      "0x2260fac5e5542a773aa44fbcfedf7c193bc2c599",
      "0x0bc529c00c6401aef6d220be8c6ea1667f6ad93e"
    ]
  ],
  "solcInputHash": "9e34a21ace81676e020f7b6ff6ae6fc3",
  "bytecode": "0x6101206040523480156200001257600080fd5b50604051620034d2380380620034d2833981810160405260608110156200003857600080fd5b815160208301516040808501805191519395929483019291846401000000008211156200006457600080fd5b9083019060208201858111156200007a57600080fd5b82518660208202830111640100000000821117156200009857600080fd5b82525081516020918201928201910280838360005b83811015620000c7578181015183820152602001620000ad565b5050505090500160405250505082828260008390506000816001600160a01b031663ad5c46486040518163ffffffff1660e01b815260040160206040518083038186803b1580156200011857600080fd5b505afa1580156200012d573d6000803e3d6000fd5b505050506040513d60208110156200014457600080fd5b50516040805163c45a015560e01b815290519192506000916001600160a01b0385169163c45a0155916004808301926020929190829003018186803b1580156200018d57600080fd5b505afa158015620001a2573d6000803e3d6000fd5b505050506040513d6020811015620001b957600080fd5b5051905060005b845181101562000371576000858281518110620001d957fe5b602002602001015190506000836001600160a01b031663e6a4390583876040518363ffffffff1660e01b815260040180836001600160a01b03166001600160a01b03168152602001826001600160a01b03166001600160a01b031681526020019250505060206040518083038186803b1580156200025657600080fd5b505afa1580156200026b573d6000803e3d6000fd5b505050506040513d60208110156200028257600080fd5b5051604080518082019091526002815261309960f11b60208201529091506001600160a01b038216620003365760405162461bcd60e51b81526004018080602001828103825283818151815260200191508051906020019080838360005b83811015620002fa578181015183820152602001620002e0565b50505050905090810190601f168015620003285780820380516001836020036101000a031916815260200191505b509250505060405180910390fd5b50506001600160a01b0316600090815260208190526040902080546001600160801b0319166001600160801b038816179055600101620001c0565b506001600160601b0319606092831b811660a052911b1660805250506040516200039e92509050620004cb565b604051809103906000f080158015620003bb573d6000803e3d6000fd5b5060601b6001600160601b03191660e0524360c052604080518082019091526002815261623560f01b60208201526001600160801b038316620004415760405162461bcd60e51b8152602060048201818152835160248401528351909283926044909101919085019080838360008315620002fa578181015183820152602001620002e0565b50600081511160405180604001604052806002815260200161311b60f11b81525090620004b15760405162461bcd60e51b8152602060048201818152835160248401528351909283926044909101919085019080838360008315620002fa578181015183820152602001620002e0565b505060801b6001600160801b0319166101005250620004d9565b610d58806200277a83390190565b60805160601c60a05160601c60c05160e05160601c6101005160801c612201620005796000398061069752806108545280610da7528061105c52806110a5525080610a645280610dfa52508061082f528061089c5280610d825280610fc25280610ff852508060b052806104f752806109db52806111d352806112ac52806117d152806118025280611be35250806111b152806117af52506122016000f3fe6080604052600436106100a05760003560e01c8063900cf0cf11610064578063900cf0cf1461026e57806392cdbac514610295578063b53880a6146102da578063ba322a9214610321578063cab8924914610353578063e6ea96f814610384576100d9565b80631622dbe4146100de578063193b33a11461012357806321e7345e1461016857806338eea386146101995780637c30be4e146101fa576100d9565b366100d957336001600160a01b037f000000000000000000000000000000000000000000000000000000000000000016146100d757fe5b005b600080fd5b3480156100ea57600080fd5b506100d76004803603608081101561010157600080fd5b506001600160a01b0381351690602081013590604081013590606001356103b7565b34801561012f57600080fd5b506100d76004803603608081101561014657600080fd5b506001600160a01b038135169060208101359060408101359060600135610475565b34801561017457600080fd5b5061017d610695565b604080516001600160801b039092168252519081900360200190f35b3480156101a557600080fd5b506101d4600480360360408110156101bc57600080fd5b506001600160a01b03813581169160200135166106b9565b604080519485526020850193909352838301919091526060830152519081900360800190f35b34801561020657600080fd5b506102436004803603608081101561021d57600080fd5b506001600160a01b038135811691602081013590911690604081013590606001356106e9565b6040805195865260208601949094528484019290925260608401526080830152519081900360a00190f35b34801561027a57600080fd5b5061028361089a565b60408051918252519081900360200190f35b3480156102a157600080fd5b506100d7600480360360808110156102b857600080fd5b506001600160a01b0381351690602081013590604081013590606001356108be565b3480156102e657600080fd5b5061030d600480360360208110156102fd57600080fd5b50356001600160a01b0316610940565b604080519115158252519081900360200190f35b6100d76004803603606081101561033757600080fd5b506001600160a01b03813516906020810135906040013561096a565b34801561035f57600080fd5b50610368610a62565b604080516001600160a01b039092168252519081900360200190f35b34801561039057600080fd5b5061017d600480360360208110156103a757600080fd5b50356001600160a01b0316610a86565b804281101560405180604001604052806002815260200161623160f01b815250906104605760405162461bcd60e51b81526004018080602001828103825283818151815260200191508051906020019080838360005b8381101561042557818101518382015260200161040d565b50505050905090810190601f1680156104525780820380516001836020036101000a031916815260200191505b509250505060405180910390fd5b5061046e3333878787610aa1565b5050505050565b804281101560405180604001604052806002815260200161623160f01b815250906104e15760405162461bcd60e51b815260206004820181815283516024840152835190928392604490910191908501908083836000831561042557818101518382015260200161040d565b5060006104f13330888888610c08565b905060007f00000000000000000000000000000000000000000000000000000000000000009050806001600160a01b0316632e1a7d4d836040518263ffffffff1660e01b815260040180828152602001915050600060405180830381600087803b15801561055e57600080fd5b505af1158015610572573d6000803e3d6000fd5b505060408051600080825260208201928390528151909450339350869290819081908082805b602083106105b75780518252601f199092019160209182019101610598565b6001836020036101000a03801982511681845116808217855250505050505090500191505060006040518083038185875af1925050503d8060008114610619576040519150601f19603f3d011682016040523d82523d6000602084013e61061e565b606091505b505090508060405180604001604052806002815260200161311960f11b8152509061068a5760405162461bcd60e51b815260206004820181815283516024840152835190928392604490910191908501908083836000831561042557818101518382015260200161040d565b505050505050505050565b7f000000000000000000000000000000000000000000000000000000000000000081565b60016020818152600093845260408085209091529183529120805491810154600282015460039092015490919084565b6001600160a01b03808516600090815260016020818152604080842094881684529381528383209182015484518086019095526002855261188d60f21b91850191909152919283928392839283926107825760405162461bcd60e51b815260206004820181815283516024840152835190928392604490910191908501908083836000831561042557818101518382015260200161040d565b50600181015481546107ac91906107a0908a9063ffffffff610ecf16565b9063ffffffff610f3116565b95506107c981600101548260020154610f3190919063ffffffff16565b9450858811156108815760006107e5898863ffffffff610f7316565b6001600160a01b038b166000908152602081905260409020549091506001600160801b031661081387610fb5565b955061082882826001600160801b0316611057565b94506108787f0000000000000000000000000000000000000000000000000000000000000000884385857f00000000000000000000000000000000000000000000000000000000000000006110d8565b9350505061088e565b6000935060009250600091505b50945094509450945094565b7f000000000000000000000000000000000000000000000000000000000000000081565b804281101560405180604001604052806002815260200161623160f01b8152509061092a5760405162461bcd60e51b815260206004820181815283516024840152835190928392604490910191908501908083836000831561042557818101518382015260200161040d565b506109383333878787610c08565b505050505050565b6001600160a01b0381166000908152602081905260409020546001600160801b031615155b919050565b804281101560405180604001604052806002815260200161623160f01b815250906109d65760405162461bcd60e51b815260206004820181815283516024840152835190928392604490910191908501908083836000831561042557818101518382015260200161040d565b5060007f000000000000000000000000000000000000000000000000000000000000000090506000349050816001600160a01b031663d0e30db0826040518263ffffffff1660e01b81526004016000604051808303818588803b158015610a3c57600080fd5b505af1158015610a50573d6000803e3d6000fd5b50505050506109383330888489610aa1565b7f000000000000000000000000000000000000000000000000000000000000000081565b6000602081905290815260409020546001600160801b031681565b6001600160a01b038086166000908152600160209081526040808320938716835292815290829020600381015483518085019094526002845261623360f01b9284019290925291904311610b365760405162461bcd60e51b815260206004820181815283516024840152835190928392604490910191908501908083836000831561042557818101518382015260200161040d565b50436003820155600080610b4c8686868a6111a6565b84549193506001600160801b03169150610b6c908663ffffffff61174a16565b83556001830154610b83908363ffffffff61174a16565b6001840155610bac610b9b438463ffffffff610ecf16565b60028501549063ffffffff61174a16565b6002840155604080518681526020810184905280820183905290516001600160a01b0388169133917f377aadedb6b2a771959584d10a6a36eccb5f56b4eb3a48525f76108d2660d8d49181900360600190a35050505050505050565b6001600160a01b0380861660009081526001602090815260408083209387168352928152828220600381015484518086019095526002855261623360f01b928501929092529192904311610c9d5760405162461bcd60e51b815260206004820181815283516024840152835190928392604490910191908501908083836000831561042557818101518382015260200161040d565b50436003820155600080610cb38787878b6117a4565b915091506000610cd884600101546107a086600001548a610ecf90919063ffffffff16565b90506000610cf785600101548660020154610f3190919063ffffffff16565b90506000610d12898760010154610f7390919063ffffffff16565b90506000838611610d24576000610d34565b610d34868563ffffffff610f7316565b9050610d498760000154838960010154611cfe565b875560028701546001880154610d6191908490611cfe565b6002880155600187018290556000610d788c610940565b15610e5a57610dcb7f00000000000000000000000000000000000000000000000000000000000000008543858a7f00000000000000000000000000000000000000000000000000000000000000006110d8565b90508015610e5a57604080516340c10f1960e01b81523360048201526024810183905290516001600160a01b037f000000000000000000000000000000000000000000000000000000000000000016916340c10f1991604480830192600092919082900301818387803b158015610e4157600080fd5b505af1158015610e55573d6000803e3d6000fd5b505050505b604080518c815260208101899052808201849052606081018390526001600160801b038816608082015290516001600160a01b038e169133917f7bb7d75a26cf0ec5e66d271f759924252ed21586b985a2dbfa2e8bdaf249df499181900360a00190a350949c9b505050505050505050505050565b600082610ede57506000610f2b565b82820282848281610eeb57fe5b0414610f285760405162461bcd60e51b81526004018080602001828103825260218152602001806121ab6021913960400191505060405180910390fd5b90505b92915050565b6000610f2883836040518060400160405280601a81526020017f536166654d6174683a206469766973696f6e206279207a65726f000000000000815250611d14565b6000610f2883836040518060400160405280601e81526020017f536166654d6174683a207375627472616374696f6e206f766572666c6f770000815250611d79565b600043821480610fe457507f000000000000000000000000000000000000000000000000000000000000000043145b15610ff157506000610965565b43828103907f0000000000000000000000000000000000000000000000000000000000000000900361104f61102c828063ffffffff610ecf16565b6107a0620f4240611043868063ffffffff610ecf16565b9063ffffffff610ecf16565b949350505050565b6000817f00000000000000000000000000000000000000000000000000000000000000006001600160801b03168401111561109457506000610f2b565b610f28826107a06001600160801b037f00000000000000000000000000000000000000000000000000000000000000001686830303620f424063ffffffff610ecf16565b6000836110e75750600061119c565b826001600160801b0316826001600160801b03168501111561110b5750600061119c565b8585141561111b5750600061119c565b8685141561112b5750600061119c565b6001600160801b03808316908416859003038686038887036000611168611158848063ffffffff610ecf16565b6110438a8763ffffffff610ecf16565b905061117a828063ffffffff610ecf16565b876001600160801b0316828161118c57fe5b048161119457fe5b049450505050505b9695505050505050565b6000806000806111f77f0000000000000000000000000000000000000000000000000000000000000000897f0000000000000000000000000000000000000000000000000000000000000000611dd3565b604080516370a0823160e01b815230600482018190529151939550919350849290916000916001600160a01b038d16916370a08231916024808301926020929190829003018186803b15801561124c57600080fd5b505afa158015611260573d6000803e3d6000fd5b505050506040513d602081101561127657600080fd5b5051604080516323b872dd60e01b81526001600160a01b038b811660048301528881166024830152604482018e905291519293507f0000000000000000000000000000000000000000000000000000000000000000909116916323b872dd916064808201926020929091908290030181600087803b1580156112f757600080fd5b505af115801561130b573d6000803e3d6000fd5b505050506040513d602081101561132157600080fd5b505083156114b657600080846001600160a01b0316630902f1ac6040518163ffffffff1660e01b815260040160606040518083038186803b15801561136557600080fd5b505afa158015611379573d6000803e3d6000fd5b505050506040513d606081101561138f57600080fd5b50805160209091015190925090506001600160a01b03851663022c0d9f6113c38e6001600160701b03808616908716611ef0565b60408051600080825260208201928390526001600160e01b031960e086901b16835260248201848152604483018290526001600160a01b038b166064840152608060848401908152835160a4850181905292948c949360c4850191908083838a5b8381101561143c578181015183820152602001611424565b50505050905090810190601f1680156114695780820380516001836020036101000a031916815260200191505b5095505050505050600060405180830381600087803b15801561148b57600080fd5b505af115801561149f573d6000803e3d6000fd5b505050506114ad8d82611f45565b9750505061164b565b600080846001600160a01b0316630902f1ac6040518163ffffffff1660e01b815260040160606040518083038186803b1580156114f257600080fd5b505afa158015611506573d6000803e3d6000fd5b505050506040513d606081101561151c57600080fd5b50805160209091015190925090506001600160a01b03851663022c0d9f60006115528f6001600160701b03808816908716611ef0565b604080516000808252602082019092528991506040518563ffffffff1660e01b815260040180858152602001848152602001836001600160a01b03166001600160a01b0316815260200180602001828103825283818151815260200191508051906020019080838360005b838110156115d55781810151838201526020016115bd565b50505050905090810190601f1680156116025780820380516001836020036101000a031916815260200191505b5095505050505050600060405180830381600087803b15801561162457600080fd5b505af1158015611638573d6000803e3d6000fd5b505050506116468d83611f45565b975050505b808b6001600160a01b03166370a08231846040518263ffffffff1660e01b815260040180826001600160a01b03166001600160a01b0316815260200191505060206040518083038186803b1580156116a257600080fd5b505afa1580156116b6573d6000803e3d6000fd5b505050506040513d60208110156116cc57600080fd5b5051604080518082019091526002815261613160f01b602082015291900397508988101561173b5760405162461bcd60e51b815260206004820181815283516024840152835190928392604490910191908501908083836000831561042557818101518382015260200161040d565b50505050505094509492505050565b600082820183811015610f28576040805162461bcd60e51b815260206004820152601b60248201527f536166654d6174683a206164646974696f6e206f766572666c6f770000000000604482015290519081900360640190fd5b6000806000806117f57f0000000000000000000000000000000000000000000000000000000000000000897f0000000000000000000000000000000000000000000000000000000000000000611dd3565b91509150600082905060007f00000000000000000000000000000000000000000000000000000000000000006001600160a01b03166370a08231886040518263ffffffff1660e01b815260040180826001600160a01b03166001600160a01b0316815260200191505060206040518083038186803b15801561187657600080fd5b505afa15801561188a573d6000803e3d6000fd5b505050506040513d60208110156118a057600080fd5b505190506118af8a858b611fc6565b8215611a4e57600080836001600160a01b0316630902f1ac6040518163ffffffff1660e01b815260040160606040518083038186803b1580156118f157600080fd5b505afa158015611905573d6000803e3d6000fd5b505050506040513d606081101561191b57600080fd5b50805160209091015190925090506001600160a01b03841663022c0d9f60006119518e6001600160701b03808816908716611ef0565b604080516000808252602082019092528e91506040518563ffffffff1660e01b815260040180858152602001848152602001836001600160a01b03166001600160a01b0316815260200180602001828103825283818151815260200191508051906020019080838360005b838110156119d45781810151838201526020016119bc565b50505050905090810190601f168015611a015780820380516001836020036101000a031916815260200191505b5095505050505050600060405180830381600087803b158015611a2357600080fd5b505af1158015611a37573d6000803e3d6000fd5b50505050611a458c82612129565b96505050611be0565b600080836001600160a01b0316630902f1ac6040518163ffffffff1660e01b815260040160606040518083038186803b158015611a8a57600080fd5b505afa158015611a9e573d6000803e3d6000fd5b505050506040513d6060811015611ab457600080fd5b50805160209091015190925090506001600160a01b03841663022c0d9f611ae88d6001600160701b03808616908716611ef0565b604080516000808252602082019092528d906040518563ffffffff1660e01b815260040180858152602001848152602001836001600160a01b03166001600160a01b0316815260200180602001828103825283818151815260200191508051906020019080838360005b83811015611b6a578181015183820152602001611b52565b50505050905090810190601f168015611b975780820380516001836020036101000a031916815260200191505b5095505050505050600060405180830381600087803b158015611bb957600080fd5b505af1158015611bcd573d6000803e3d6000fd5b50505050611bdb8c83612129565b965050505b807f00000000000000000000000000000000000000000000000000000000000000006001600160a01b03166370a08231896040518263ffffffff1660e01b815260040180826001600160a01b03166001600160a01b0316815260200191505060206040518083038186803b158015611c5757600080fd5b505afa158015611c6b573d6000803e3d6000fd5b505050506040513d6020811015611c8157600080fd5b5051604080518082019091526002815261613160f01b6020820152919003965088871015611cf05760405162461bcd60e51b815260206004820181815283516024840152835190928392604490910191908501908083836000831561042557818101518382015260200161040d565b505050505094509492505050565b600061104f826107a0868663ffffffff610ecf16565b60008183611d635760405162461bcd60e51b815260206004820181815283516024840152835190928392604490910191908501908083836000831561042557818101518382015260200161040d565b506000838581611d6f57fe5b0495945050505050565b60008184841115611dcb5760405162461bcd60e51b815260206004820181815283516024840152835190928392604490910191908501908083836000831561042557818101518382015260200161040d565b505050900390565b60006001600160a01b03808316908416108481611e2857604080516bffffffffffffffffffffffff19606087811b8216602084015288901b166034820152815160288183030181526048909101909152611e62565b604080516bffffffffffffffffffffffff19606088811b8216602084015287901b1660348201528151602881830301815260489091019091525b8051906020012060405160200180806001600160f81b0319815250600101836001600160a01b03166001600160a01b031660601b8152601401828152602001807f96e8ac4277198ff8b6f785478aa9a39f403cb768dd02cbee326c3e7da348845f815250602001925050506040516020818303038152906040528051906020012060001c9150935093915050565b600080611f05856103e563ffffffff610ecf16565b9050611f3c611f2c82611f20876103e863ffffffff610ecf16565b9063ffffffff61174a16565b6107a0858463ffffffff610ecf16565b95945050505050565b6001600160a01b0382166000908152602081905260409020546001600160801b031680611f7157610f2b565b806001600160801b0316826001600160701b03161115610f2b57506001600160a01b038216600090815260208190526040902080546001600160801b0319166001600160701b03831690811790915592915050565b604080516001600160a01b038481166024830152604480830185905283518084039091018152606490920183526020820180516001600160e01b031663a9059cbb60e01b178152925182516000946060949389169392918291908083835b602083106120435780518252601f199092019160209182019101612024565b6001836020036101000a0380198251168184511680821785525050505050509050019150506000604051808303816000865af19150503d80600081146120a5576040519150601f19603f3d011682016040523d82523d6000602084013e6120aa565b606091505b50915091508180156120d85750805115806120d857508080602001905160208110156120d557600080fd5b50515b61046e576040805162461bcd60e51b815260206004820152601f60248201527f5472616e7366657248656c7065723a205452414e534645525f4641494c454400604482015290519081900360640190fd5b6001600160a01b0382166000908152602081905260409020546001600160801b03168061215557610f2b565b806001600160801b0316826001600160701b03161015610f2b57506001600160a01b038216600090815260208190526040902080546001600160801b0319166001600160701b0383169081179091559291505056fe536166654d6174683a206d756c7469706c69636174696f6e206f766572666c6f77a264697066735822122002bd85187d22d72faad5afec3256b57d31a36dc664f806d22331654b7ec857ec64736f6c6343000608003360a060405234801561001057600080fd5b506040518060400160405280600781526020016656616e696c6c6160c81b8152506040518060400160405280600381526020016215939360ea1b81525081600390805190602001906100639291906100bc565b5080516100779060049060208401906100bc565b50506005805460ff19166012179055503360601b6080526100a1600c6001600160e01b036100a616565b610157565b6005805460ff191660ff92909216919091179055565b828054600181600116156101000203166002900490600052602060002090601f016020900481019282601f106100fd57805160ff191683800117855561012a565b8280016001018555821561012a579182015b8281111561012a57825182559160200191906001019061010f565b5061013692915061013a565b5090565b61015491905b808211156101365760008155600101610140565b90565b60805160601c610be4610174600039806104b05250610be46000f3fe608060405234801561001057600080fd5b50600436106100b45760003560e01c806340c10f191161007157806340c10f191461021057806370a082311461023e57806395d89b4114610264578063a457c2d71461026c578063a9059cbb14610298578063dd62ed3e146102c4576100b4565b806306fdde03146100b9578063095ea7b31461013657806318160ddd1461017657806323b872dd14610190578063313ce567146101c657806339509351146101e4575b600080fd5b6100c16102f2565b6040805160208082528351818301528351919283929083019185019080838360005b838110156100fb5781810151838201526020016100e3565b50505050905090810190601f1680156101285780820380516001836020036101000a031916815260200191505b509250505060405180910390f35b6101626004803603604081101561014c57600080fd5b506001600160a01b038135169060200135610388565b604080519115158252519081900360200190f35b61017e6103a5565b60408051918252519081900360200190f35b610162600480360360608110156101a657600080fd5b506001600160a01b038135811691602081013590911690604001356103ab565b6101ce610438565b6040805160ff9092168252519081900360200190f35b610162600480360360408110156101fa57600080fd5b506001600160a01b038135169060200135610441565b61023c6004803603604081101561022657600080fd5b506001600160a01b038135169060200135610495565b005b61017e6004803603602081101561025457600080fd5b50356001600160a01b0316610571565b6100c161058c565b6101626004803603604081101561028257600080fd5b506001600160a01b0381351690602001356105ed565b610162600480360360408110156102ae57600080fd5b506001600160a01b03813516906020013561065b565b61017e600480360360408110156102da57600080fd5b506001600160a01b038135811691602001351661066f565b60038054604080516020601f600260001961010060018816150201909516949094049384018190048102820181019092528281526060939092909183018282801561037e5780601f106103535761010080835404028352916020019161037e565b820191906000526020600020905b81548152906001019060200180831161036157829003601f168201915b5050505050905090565b600061039c61039561069a565b848461069e565b50600192915050565b60025490565b60006103b884848461078a565b61042e846103c461069a565b61042985604051806060016040528060288152602001610b19602891396001600160a01b038a1660009081526001602052604081209061040261069a565b6001600160a01b03168152602081019190915260400160002054919063ffffffff6108f116565b61069e565b5060019392505050565b60055460ff1690565b600061039c61044e61069a565b84610429856001600061045f61069a565b6001600160a01b03908116825260208083019390935260409182016000908120918c16815292529020549063ffffffff61094b16565b604080518082019091526002815261633160f01b60208201527f00000000000000000000000000000000000000000000000000000000000000006001600160a01b031633146105625760405162461bcd60e51b81526004018080602001828103825283818151815260200191508051906020019080838360005b8381101561052757818101518382015260200161050f565b50505050905090810190601f1680156105545780820380516001836020036101000a031916815260200191505b509250505060405180910390fd5b5061056d82826109ac565b5050565b6001600160a01b031660009081526020819052604090205490565b60048054604080516020601f600260001961010060018816150201909516949094049384018190048102820181019092528281526060939092909183018282801561037e5780601f106103535761010080835404028352916020019161037e565b600061039c6105fa61069a565b8461042985604051806060016040528060258152602001610b8a602591396001600061062461069a565b6001600160a01b03908116825260208083019390935260409182016000908120918d1681529252902054919063ffffffff6108f116565b600061039c61066861069a565b848461078a565b6001600160a01b03918216600090815260016020908152604080832093909416825291909152205490565b3390565b6001600160a01b0383166106e35760405162461bcd60e51b8152600401808060200182810382526024815260200180610b666024913960400191505060405180910390fd5b6001600160a01b0382166107285760405162461bcd60e51b8152600401808060200182810382526022815260200180610ad16022913960400191505060405180910390fd5b6001600160a01b03808416600081815260016020908152604080832094871680845294825291829020859055815185815291517f8c5be1e5ebec7d5bd14f71427d1e84f3dd0314c0f7b2291e5b200ac8c7c3b9259281900390910190a3505050565b6001600160a01b0383166107cf5760405162461bcd60e51b8152600401808060200182810382526025815260200180610b416025913960400191505060405180910390fd5b6001600160a01b0382166108145760405162461bcd60e51b8152600401808060200182810382526023815260200180610aae6023913960400191505060405180910390fd5b61081f838383610aa8565b61086281604051806060016040528060268152602001610af3602691396001600160a01b038616600090815260208190526040902054919063ffffffff6108f116565b6001600160a01b038085166000908152602081905260408082209390935590841681522054610897908263ffffffff61094b16565b6001600160a01b038084166000818152602081815260409182902094909455805185815290519193928716927fddf252ad1be2c89b69c2b068fc378daa952ba7f163c4a11628f55a4df523b3ef92918290030190a3505050565b600081848411156109435760405162461bcd60e51b815260206004820181815283516024840152835190928392604490910191908501908083836000831561052757818101518382015260200161050f565b505050900390565b6000828201838110156109a5576040805162461bcd60e51b815260206004820152601b60248201527f536166654d6174683a206164646974696f6e206f766572666c6f770000000000604482015290519081900360640190fd5b9392505050565b6001600160a01b038216610a07576040805162461bcd60e51b815260206004820152601f60248201527f45524332303a206d696e7420746f20746865207a65726f206164647265737300604482015290519081900360640190fd5b610a1360008383610aa8565b600254610a26908263ffffffff61094b16565b6002556001600160a01b038216600090815260208190526040902054610a52908263ffffffff61094b16565b6001600160a01b0383166000818152602081815260408083209490945583518581529351929391927fddf252ad1be2c89b69c2b068fc378daa952ba7f163c4a11628f55a4df523b3ef9281900390910190a35050565b50505056fe45524332303a207472616e7366657220746f20746865207a65726f206164647265737345524332303a20617070726f766520746f20746865207a65726f206164647265737345524332303a207472616e7366657220616d6f756e7420657863656564732062616c616e636545524332303a207472616e7366657220616d6f756e74206578636565647320616c6c6f77616e636545524332303a207472616e736665722066726f6d20746865207a65726f206164647265737345524332303a20617070726f76652066726f6d20746865207a65726f206164647265737345524332303a2064656372656173656420616c6c6f77616e63652062656c6f77207a65726fa2646970667358221220ef0d9ad3bc1881fc99e9c8fdbc89f7e907e753946da600fd8247660aeebec2df64736f6c63430006080033",
  "devdoc": {
    "methods": {
      "buy(address,uint256,uint256,uint256)": {
        "details": "Buys the `numToken` tokens for all the msg.value Ether, before `blockTimeDeadline`",
        "params": {
          "blockTimeDeadline": "The block timestamp when this buy-transaction expires",
          "numEth": "The amount of WETH to spend. Needs to be pre-approved for the VanillaRouter.",
          "numToken": "The amount of ERC20 tokens to be bought",
          "token": "The address of ERC20 token to be bought"
        }
      },
      "constructor": {
        "details": "initializes the token contract for safe reference and sets the epoch for reward calculations",
        "params": {
          "limit": "The minimum WETH reserve for a token to be eligible in profit mining",
          "safeList": "The list of ERC-20 addresses that are considered \"safe\", and will be eligible for rewards",
          "uniswapRouter": "The address of UniswapRouter contract"
        }
      },
      "depositAndBuy(address,uint256,uint256)": {
        "details": "Buys the `numToken` tokens for all the msg.value Ether, before `blockTimeDeadline`",
        "params": {
          "blockTimeDeadline": "The block timestamp when this buy-transaction expires",
          "numToken": "The amount of ERC20 tokens to be bought",
          "token": "The address of ERC20 token to be bought"
        }
      },
      "estimateReward(address,address,uint256,uint256)": {
        "details": "Estimates the reward for given `owner` when selling `numTokensSold``token`s for `numEth` Ether. Also returns the individual components of the reward formula.",
        "returns": {
          "avgBlock": "The volume-weighted average block for the `owner` and `token`",
          "htrs": "The Holding/Trading Ratio, Squared- estimate for this trade, percentage value range in fixed point range 0-100.0000.",
          "profitablePrice": "The expected amount of Ether for this trade. Profit of this trade can be calculated with `numEth`-`profitablePrice`.",
          "reward": "The token reward estimate for this trade.",
          "vpc": "The Value-Protection Coefficient- estimate for this trade, percentage value range in fixed point range 0-100.0000."
        }
      },
      "isTokenRewarded(address)": {
        "params": {
          "token": "The ERC-20 token address"
        }
      },
      "sell(address,uint256,uint256,uint256)": {
        "details": "Sells the `numToken` tokens msg.sender owns, for `numEth` ether, before `blockTimeDeadline`",
        "params": {
          "blockTimeDeadline": "The block timestamp when this sell-transaction expires",
          "numEthLimit": "The minimum amount of ether to be received for exchange (the limit order)",
          "numToken": "The amount of ERC20 tokens to be sold",
          "token": "The address of ERC20 token to be sold"
        }
      },
      "sellAndWithdraw(address,uint256,uint256,uint256)": {
        "details": "Sells the `numToken` tokens msg.sender owns, for `numEth` ether, before `blockTimeDeadline`",
        "params": {
          "blockTimeDeadline": "The block timestamp when this sell-transaction expires",
          "numEthLimit": "The minimum amount of ether to be received for exchange (the limit order)",
          "numToken": "The amount of ERC20 tokens to be sold",
          "token": "The address of ERC20 token to be sold"
        }
      }
    },
    "title": "The main entrypoint for Vanilla"
  },
  "userdoc": {
    "methods": {
      "buy(address,uint256,uint256,uint256)": {
        "notice": "Buys the tokens with WETH. Use the external pricefeed for pricing."
      },
      "constructor": "Deploys the contract and the VanillaGovernanceToken contract.",
      "depositAndBuy(address,uint256,uint256)": {
        "notice": "Buys the tokens with Ether. Use the external pricefeed for pricing."
      },
      "estimateReward(address,address,uint256,uint256)": {
        "notice": "Estimates the reward."
      },
      "isTokenRewarded(address)": {
        "notice": "Checks if the given ERC-20 token will be eligible for rewards (i.e. a safelisted token)"
      },
      "sell(address,uint256,uint256,uint256)": {
        "notice": "Sells the tokens the caller owns. Use the external pricefeed for pricing."
      },
      "sellAndWithdraw(address,uint256,uint256,uint256)": {
        "notice": "Sells the tokens the caller owns. Use the external pricefeed for pricing."
      }
    }
  },
  "storageLayout": {
    "storage": [
      {
        "astId": 1686,
        "contract": "contracts/VanillaRouter.sol:VanillaRouter",
        "label": "wethReserves",
        "offset": 0,
        "slot": "0",
        "type": "t_mapping(t_address,t_uint128)"
      },
      {
        "astId": 2352,
        "contract": "contracts/VanillaRouter.sol:VanillaRouter",
        "label": "tokenPriceData",
        "offset": 0,
        "slot": "1",
        "type": "t_mapping(t_address,t_mapping(t_address,t_struct(PriceData)2346_storage))"
      }
    ],
    "types": {
      "t_address": {
        "encoding": "inplace",
        "label": "address",
        "numberOfBytes": "20"
      },
      "t_mapping(t_address,t_mapping(t_address,t_struct(PriceData)2346_storage))": {
        "encoding": "mapping",
        "key": "t_address",
        "label": "mapping(address => mapping(address => struct VanillaRouter.PriceData))",
        "numberOfBytes": "32",
        "value": "t_mapping(t_address,t_struct(PriceData)2346_storage)"
      },
      "t_mapping(t_address,t_struct(PriceData)2346_storage)": {
        "encoding": "mapping",
        "key": "t_address",
        "label": "mapping(address => struct VanillaRouter.PriceData)",
        "numberOfBytes": "32",
        "value": "t_struct(PriceData)2346_storage"
      },
      "t_mapping(t_address,t_uint128)": {
        "encoding": "mapping",
        "key": "t_address",
        "label": "mapping(address => uint128)",
        "numberOfBytes": "32",
        "value": "t_uint128"
      },
      "t_struct(PriceData)2346_storage": {
        "encoding": "inplace",
        "label": "struct VanillaRouter.PriceData",
        "members": [
          {
            "astId": 2339,
            "contract": "contracts/VanillaRouter.sol:VanillaRouter",
            "label": "ethSum",
            "offset": 0,
            "slot": "0",
            "type": "t_uint256"
          },
          {
            "astId": 2341,
            "contract": "contracts/VanillaRouter.sol:VanillaRouter",
            "label": "tokenSum",
            "offset": 0,
            "slot": "1",
            "type": "t_uint256"
          },
          {
            "astId": 2343,
            "contract": "contracts/VanillaRouter.sol:VanillaRouter",
            "label": "weightedBlockSum",
            "offset": 0,
            "slot": "2",
            "type": "t_uint256"
          },
          {
            "astId": 2345,
            "contract": "contracts/VanillaRouter.sol:VanillaRouter",
            "label": "latestBlock",
            "offset": 0,
            "slot": "3",
            "type": "t_uint256"
          }
        ],
        "numberOfBytes": "128"
      },
      "t_uint128": {
        "encoding": "inplace",
        "label": "uint128",
        "numberOfBytes": "16"
      },
      "t_uint256": {
        "encoding": "inplace",
        "label": "uint256",
        "numberOfBytes": "32"
      }
    }
  }
}